{
  "address": "0xA48b29591142A2ca83b77c1d710fd9043C9C77A3",
  "abi": [
    {
      "inputs": [
        {
          "internalType": "contract PockyCollections",
          "name": "_collections",
          "type": "address"
        },
        {
          "internalType": "contract Ticket",
          "name": "_ticket",
          "type": "address"
        }
      ],
      "stateMutability": "nonpayable",
      "type": "constructor"
    },
    {
      "inputs": [],
      "name": "collections",
      "outputs": [
        {
          "internalType": "contract PockyCollections",
          "name": "",
          "type": "address"
        }
      ],
      "stateMutability": "view",
      "type": "function"
    },
    {
      "inputs": [
        {
          "internalType": "uint256",
          "name": "collectionId",
          "type": "uint256"
        }
      ],
      "name": "purchase",
      "outputs": [],
      "stateMutability": "payable",
      "type": "function"
    },
    {
      "inputs": [],
      "name": "ticket",
      "outputs": [
        {
          "internalType": "contract Ticket",
          "name": "",
          "type": "address"
        }
      ],
      "stateMutability": "view",
      "type": "function"
    },
    {
      "inputs": [
        {
          "internalType": "uint256",
          "name": "collectionId",
          "type": "uint256"
        }
      ],
      "name": "withdrawCollectionRevenue",
      "outputs": [],
      "stateMutability": "nonpayable",
      "type": "function"
    }
  ],
  "transactionHash": "0x5f50078b61ebc17c2cd9d43f8e3e70316cbb7170ab127ab35758d0c4b1b5a784",
  "args": [
    "0xa9f6E9B62A45216cdC67DB52BaE41269185d931B",
    "0x0f5568eBE7Ed064588dAbAe9DB07F882D207Af58"
  ],
  "numDeployments": 1,
  "solcInputHash": "df058e6789564aa6282e6bc6f34413ac",
  "bytecode": "0x608060405234801561001057600080fd5b50604051610e93380380610e9383398101604081905261002f91610078565b600080546001600160a01b039384166001600160a01b031991821617909155600180549290931691161790556100b2565b6001600160a01b038116811461007557600080fd5b50565b6000806040838503121561008b57600080fd5b825161009681610060565b60208401519092506100a781610060565b809150509250929050565b610dd2806100c16000396000f3fe60806040526004361061003f5760003560e01c80635d1090fb146100445780636cc25db714610066578063e562dfd6146100a2578063efef39a1146100c2575b600080fd5b34801561005057600080fd5b5061006461005f3660046105f5565b6100d5565b005b34801561007257600080fd5b50600154610086906001600160a01b031681565b6040516001600160a01b03909116815260200160405180910390f35b3480156100ae57600080fd5b50600054610086906001600160a01b031681565b6100646100d03660046105f5565b610304565b600054604051634f558e7960e01b8152600481018390526001600160a01b0390911690634f558e7990602401602060405180830381865afa15801561011e573d6000803e3d6000fd5b505050506040513d601f19601f820116820180604052508101906101429190610623565b6101935760405162461bcd60e51b815260206004820152601960248201527f636f6c6c656374696f6e20646f6573206e6f742065786973740000000000000060448201526064015b60405180910390fd5b600054604051634a83e9cd60e11b8152600481018390526001600160a01b0390911690639507d39a90602401600060405180830381865afa1580156101dc573d6000803e3d6000fd5b505050506040513d6000823e601f3d908101601f191682016040526102049190810190610ba6565b604001516001600160a01b0316336001600160a01b0316146102685760405162461bcd60e51b815260206004820152601760248201527f6f6e6c79206f776e65722063616e207769746864726177000000000000000000604482015260640161018a565b600081815260026020526040902054806102c45760405162461bcd60e51b815260206004820152600a60248201527f6e6f2062616c616e636500000000000000000000000000000000000000000000604482015260640161018a565b60008281526002602052604080822082905551339183156108fc02918491818181858888f193505050501580156102ff573d6000803e3d6000fd5b505050565b600054604051634f558e7960e01b8152600481018390526001600160a01b0390911690634f558e7990602401602060405180830381865afa15801561034d573d6000803e3d6000fd5b505050506040513d601f19601f820116820180604052508101906103719190610623565b6103bd5760405162461bcd60e51b815260206004820152601960248201527f636f6c6c656374696f6e20646f6573206e6f7420657869737400000000000000604482015260640161018a565b600054604051634a83e9cd60e11b8152600481018390526103e8916001600160a01b031690639507d39a90602401600060405180830381865afa158015610408573d6000803e3d6000fd5b505050506040513d6000823e601f3d908101601f191682016040526104309190810190610ba6565b60a0015161043e9190610d53565b42111561048d5760405162461bcd60e51b815260206004820152601760248201527f6576656e742068617320616c726561647920656e646564000000000000000000604482015260640161018a565b600054604051634a83e9cd60e11b8152600481018390526001600160a01b0390911690639507d39a90602401600060405180830381865afa1580156104d6573d6000803e3d6000fd5b505050506040513d6000823e601f3d908101601f191682016040526104fe9190810190610ba6565b6020015134146105505760405162461bcd60e51b815260206004820152600d60248201527f696e76616c696420707269636500000000000000000000000000000000000000604482015260640161018a565b6001546040517f94bf804d000000000000000000000000000000000000000000000000000000008152600481018390523360248201526001600160a01b03909116906394bf804d90604401600060405180830381600087803b1580156105b557600080fd5b505af11580156105c9573d6000803e3d6000fd5b505050600082815260026020526040812080543493509091906105ed908490610d75565b909155505050565b60006020828403121561060757600080fd5b5035919050565b8051801515811461061e57600080fd5b919050565b60006020828403121561063557600080fd5b61063e8261060e565b9392505050565b634e487b7160e01b600052604160045260246000fd5b6040516101a0810167ffffffffffffffff8111828210171561067f5761067f610645565b60405290565b6040516101c0810167ffffffffffffffff8111828210171561067f5761067f610645565b604051601f8201601f1916810167ffffffffffffffff811182821017156106d2576106d2610645565b604052919050565b600082601f8301126106eb57600080fd5b815167ffffffffffffffff81111561070557610705610645565b6020610719601f8301601f191682016106a9565b828152858284870101111561072d57600080fd5b60005b8381101561074b578581018301518282018401528201610730565b506000928101909101919091529392505050565b80516001600160a01b038116811461061e57600080fd5b60006101a0828403121561078957600080fd5b61079161065b565b9050815167ffffffffffffffff808211156107ab57600080fd5b6107b7858386016106da565b835260208401519150808211156107cd57600080fd5b6107d9858386016106da565b602084015260408401519150808211156107f257600080fd5b6107fe858386016106da565b6040840152606084015191508082111561081757600080fd5b610823858386016106da565b6060840152608084015191508082111561083c57600080fd5b610848858386016106da565b608084015260a084015191508082111561086157600080fd5b61086d858386016106da565b60a084015260c084015191508082111561088657600080fd5b610892858386016106da565b60c084015260e08401519150808211156108ab57600080fd5b6108b7858386016106da565b60e0840152610100915081840151818111156108d257600080fd5b6108de868287016106da565b8385015250610120915081840151818111156108f957600080fd5b610905868287016106da565b83850152506101409150818401518181111561092057600080fd5b61092c868287016106da565b83850152506101609150818401518181111561094757600080fd5b610953868287016106da565b83850152506101809150818401518181111561096e57600080fd5b61097a868287016106da565b8385015250505092915050565b60006101c0828403121561099a57600080fd5b6109a2610685565b9050815167ffffffffffffffff808211156109bc57600080fd5b6109c8858386016106da565b835260208401519150808211156109de57600080fd5b6109ea858386016106da565b60208401526040840151915080821115610a0357600080fd5b610a0f858386016106da565b60408401526060840151915080821115610a2857600080fd5b610a34858386016106da565b60608401526080840151915080821115610a4d57600080fd5b610a59858386016106da565b608084015260a0840151915080821115610a7257600080fd5b610a7e858386016106da565b60a084015260c0840151915080821115610a9757600080fd5b610aa3858386016106da565b60c084015260e0840151915080821115610abc57600080fd5b610ac8858386016106da565b60e084015261010091508184015181811115610ae357600080fd5b610aef868287016106da565b838501525061012091508184015181811115610b0a57600080fd5b610b16868287016106da565b838501525061014091508184015181811115610b3157600080fd5b610b3d868287016106da565b838501525061016091508184015181811115610b5857600080fd5b610b64868287016106da565b838501525061018091508184015181811115610b7f57600080fd5b610b8b868287016106da565b83850152506101a09150818401518181111561096e57600080fd5b600060208284031215610bb857600080fd5b815167ffffffffffffffff80821115610bd057600080fd5b908301906101c08286031215610be557600080fd5b610bed610685565b825182811115610bfc57600080fd5b610c08878286016106da565b82525060208301516020820152610c216040840161075f565b6040820152606083015160608201526080830151608082015260a083015160a082015260c083015182811115610c5657600080fd5b610c62878286016106da565b60c08301525060e083015182811115610c7a57600080fd5b610c8687828601610776565b60e0830152506101008084015183811115610ca057600080fd5b610cac888287016106da565b8284015250506101208084015183811115610cc657600080fd5b610cd2888287016106da565b8284015250506101408084015183811115610cec57600080fd5b610cf8888287016106da565b828401525050610160610d0c81850161060e565b90820152610180610d1e84820161060e565b908201526101a08381015183811115610d3657600080fd5b610d4288828701610987565b918301919091525095945050505050565b600082610d7057634e487b7160e01b600052601260045260246000fd5b500490565b80820180821115610d9657634e487b7160e01b600052601160045260246000fd5b9291505056fea2646970667358221220a3c7f107fd23d713b0ac9767a25bbb884a37e97dc551c9227864877f557c16d364736f6c63430008110033",
  "devdoc": {
    "details": "Mints a new PockeyTicket dNFT as a user pays, and manages the revenue per collection.",
    "kind": "dev",
    "methods": {},
    "version": 1
  },
  "userdoc": {
    "kind": "user",
    "methods": {},
    "version": 1
  },
  "storageLayout": {
    "storage": [
      {
        "astId": 6542,
        "contract": "contracts/PockyTicketSales.sol:PockyTicketSales",
        "label": "collections",
        "offset": 0,
        "slot": "0",
        "type": "t_contract(PockyCollections)6329"
      },
      {
        "astId": 6545,
        "contract": "contracts/PockyTicketSales.sol:PockyTicketSales",
        "label": "ticket",
        "offset": 0,
        "slot": "1",
        "type": "t_contract(Ticket)6532"
      },
      {
        "astId": 6549,
        "contract": "contracts/PockyTicketSales.sol:PockyTicketSales",
        "label": "_balancePerCollectionId",
        "offset": 0,
        "slot": "2",
        "type": "t_mapping(t_uint256,t_uint256)"
      }
    ],
    "types": {
      "t_contract(PockyCollections)6329": {
        "encoding": "inplace",
        "label": "contract PockyCollections",
        "numberOfBytes": "20"
      },
      "t_contract(Ticket)6532": {
        "encoding": "inplace",
        "label": "contract Ticket",
        "numberOfBytes": "20"
      },
      "t_mapping(t_uint256,t_uint256)": {
        "encoding": "mapping",
        "key": "t_uint256",
        "label": "mapping(uint256 => uint256)",
        "numberOfBytes": "32",
        "value": "t_uint256"
      },
      "t_uint256": {
        "encoding": "inplace",
        "label": "uint256",
        "numberOfBytes": "32"
      }
    }
  }
}