{
  "address": "0xa9f6E9B62A45216cdC67DB52BaE41269185d931B",
  "abi": [
    {
      "inputs": [],
      "stateMutability": "nonpayable",
      "type": "constructor"
    },
    {
      "anonymous": false,
      "inputs": [
        {
          "indexed": true,
          "internalType": "bytes32",
          "name": "role",
          "type": "bytes32"
        },
        {
          "indexed": true,
          "internalType": "bytes32",
          "name": "previousAdminRole",
          "type": "bytes32"
        },
        {
          "indexed": true,
          "internalType": "bytes32",
          "name": "newAdminRole",
          "type": "bytes32"
        }
      ],
      "name": "RoleAdminChanged",
      "type": "event"
    },
    {
      "anonymous": false,
      "inputs": [
        {
          "indexed": true,
          "internalType": "bytes32",
          "name": "role",
          "type": "bytes32"
        },
        {
          "indexed": true,
          "internalType": "address",
          "name": "account",
          "type": "address"
        },
        {
          "indexed": true,
          "internalType": "address",
          "name": "sender",
          "type": "address"
        }
      ],
      "name": "RoleGranted",
      "type": "event"
    },
    {
      "anonymous": false,
      "inputs": [
        {
          "indexed": true,
          "internalType": "bytes32",
          "name": "role",
          "type": "bytes32"
        },
        {
          "indexed": true,
          "internalType": "address",
          "name": "account",
          "type": "address"
        },
        {
          "indexed": true,
          "internalType": "address",
          "name": "sender",
          "type": "address"
        }
      ],
      "name": "RoleRevoked",
      "type": "event"
    },
    {
      "inputs": [],
      "name": "DEFAULT_ADMIN_ROLE",
      "outputs": [
        {
          "internalType": "bytes32",
          "name": "",
          "type": "bytes32"
        }
      ],
      "stateMutability": "view",
      "type": "function"
    },
    {
      "inputs": [],
      "name": "REGISTRAR_ROLE",
      "outputs": [
        {
          "internalType": "bytes32",
          "name": "",
          "type": "bytes32"
        }
      ],
      "stateMutability": "view",
      "type": "function"
    },
    {
      "inputs": [],
      "name": "RESULT_ORACLE_ROLE",
      "outputs": [
        {
          "internalType": "bytes32",
          "name": "",
          "type": "bytes32"
        }
      ],
      "stateMutability": "view",
      "type": "function"
    },
    {
      "inputs": [
        {
          "internalType": "uint256",
          "name": "collectionId",
          "type": "uint256"
        }
      ],
      "name": "constructTokenURIOf",
      "outputs": [
        {
          "internalType": "string",
          "name": "",
          "type": "string"
        }
      ],
      "stateMutability": "view",
      "type": "function"
    },
    {
      "inputs": [
        {
          "internalType": "uint256",
          "name": "collectionId",
          "type": "uint256"
        }
      ],
      "name": "exists",
      "outputs": [
        {
          "internalType": "bool",
          "name": "",
          "type": "bool"
        }
      ],
      "stateMutability": "view",
      "type": "function"
    },
    {
      "inputs": [
        {
          "internalType": "uint256",
          "name": "collectionId",
          "type": "uint256"
        }
      ],
      "name": "get",
      "outputs": [
        {
          "components": [
            {
              "internalType": "string",
              "name": "name",
              "type": "string"
            },
            {
              "internalType": "uint256",
              "name": "priceInETH",
              "type": "uint256"
            },
            {
              "internalType": "address",
              "name": "owner",
              "type": "address"
            },
            {
              "internalType": "uint256",
              "name": "maxSupply",
              "type": "uint256"
            },
            {
              "internalType": "uint256",
              "name": "startDate",
              "type": "uint256"
            },
            {
              "internalType": "uint256",
              "name": "endDate",
              "type": "uint256"
            },
            {
              "internalType": "string",
              "name": "matchDate",
              "type": "string"
            },
            {
              "components": [
                {
                  "internalType": "string",
                  "name": "homeTeamName",
                  "type": "string"
                },
                {
                  "internalType": "string",
                  "name": "homeTeamSymbol",
                  "type": "string"
                },
                {
                  "internalType": "string",
                  "name": "homeTeamLogo",
                  "type": "string"
                },
                {
                  "internalType": "string",
                  "name": "homeTeamColor",
                  "type": "string"
                },
                {
                  "internalType": "string",
                  "name": "awayTeamName",
                  "type": "string"
                },
                {
                  "internalType": "string",
                  "name": "awayTeamSymbol",
                  "type": "string"
                },
                {
                  "internalType": "string",
                  "name": "awayTeamLogo",
                  "type": "string"
                },
                {
                  "internalType": "string",
                  "name": "awayTeamColor",
                  "type": "string"
                },
                {
                  "internalType": "string",
                  "name": "qrCodeUrl",
                  "type": "string"
                },
                {
                  "internalType": "string",
                  "name": "dateLine1",
                  "type": "string"
                },
                {
                  "internalType": "string",
                  "name": "dateLine2",
                  "type": "string"
                },
                {
                  "internalType": "string",
                  "name": "locationLine1",
                  "type": "string"
                },
                {
                  "internalType": "string",
                  "name": "locationLine2",
                  "type": "string"
                }
              ],
              "internalType": "struct PockyCollections.TicketSVGMetadata",
              "name": "ticketSvgMetadata",
              "type": "tuple"
            },
            {
              "internalType": "string",
              "name": "eventLocation",
              "type": "string"
            },
            {
              "internalType": "string",
              "name": "description",
              "type": "string"
            },
            {
              "internalType": "string",
              "name": "imageUrl",
              "type": "string"
            },
            {
              "internalType": "bool",
              "name": "featured",
              "type": "bool"
            },
            {
              "internalType": "bool",
              "name": "updated",
              "type": "bool"
            },
            {
              "components": [
                {
                  "internalType": "string",
                  "name": "homeScore",
                  "type": "string"
                },
                {
                  "internalType": "string",
                  "name": "homeFGM",
                  "type": "string"
                },
                {
                  "internalType": "string",
                  "name": "homeFGP",
                  "type": "string"
                },
                {
                  "internalType": "string",
                  "name": "homeTPM",
                  "type": "string"
                },
                {
                  "internalType": "string",
                  "name": "homeTPP",
                  "type": "string"
                },
                {
                  "internalType": "string",
                  "name": "homeFTM",
                  "type": "string"
                },
                {
                  "internalType": "string",
                  "name": "homeFTP",
                  "type": "string"
                },
                {
                  "internalType": "string",
                  "name": "awayScore",
                  "type": "string"
                },
                {
                  "internalType": "string",
                  "name": "awayFGM",
                  "type": "string"
                },
                {
                  "internalType": "string",
                  "name": "awayFGP",
                  "type": "string"
                },
                {
                  "internalType": "string",
                  "name": "awayTPM",
                  "type": "string"
                },
                {
                  "internalType": "string",
                  "name": "awayTPP",
                  "type": "string"
                },
                {
                  "internalType": "string",
                  "name": "awayFTM",
                  "type": "string"
                },
                {
                  "internalType": "string",
                  "name": "awayFTP",
                  "type": "string"
                }
              ],
              "internalType": "struct PockyCollections.OracleResult",
              "name": "eventResult",
              "type": "tuple"
            }
          ],
          "internalType": "struct PockyCollections.Collection",
          "name": "",
          "type": "tuple"
        }
      ],
      "stateMutability": "view",
      "type": "function"
    },
    {
      "inputs": [
        {
          "internalType": "bytes32",
          "name": "role",
          "type": "bytes32"
        }
      ],
      "name": "getRoleAdmin",
      "outputs": [
        {
          "internalType": "bytes32",
          "name": "",
          "type": "bytes32"
        }
      ],
      "stateMutability": "view",
      "type": "function"
    },
    {
      "inputs": [
        {
          "internalType": "bytes32",
          "name": "role",
          "type": "bytes32"
        },
        {
          "internalType": "address",
          "name": "account",
          "type": "address"
        }
      ],
      "name": "grantRole",
      "outputs": [],
      "stateMutability": "nonpayable",
      "type": "function"
    },
    {
      "inputs": [
        {
          "internalType": "bytes32",
          "name": "role",
          "type": "bytes32"
        },
        {
          "internalType": "address",
          "name": "account",
          "type": "address"
        }
      ],
      "name": "hasRole",
      "outputs": [
        {
          "internalType": "bool",
          "name": "",
          "type": "bool"
        }
      ],
      "stateMutability": "view",
      "type": "function"
    },
    {
      "inputs": [],
      "name": "list",
      "outputs": [
        {
          "components": [
            {
              "internalType": "string",
              "name": "name",
              "type": "string"
            },
            {
              "internalType": "uint256",
              "name": "priceInETH",
              "type": "uint256"
            },
            {
              "internalType": "address",
              "name": "owner",
              "type": "address"
            },
            {
              "internalType": "uint256",
              "name": "maxSupply",
              "type": "uint256"
            },
            {
              "internalType": "uint256",
              "name": "startDate",
              "type": "uint256"
            },
            {
              "internalType": "uint256",
              "name": "endDate",
              "type": "uint256"
            },
            {
              "internalType": "string",
              "name": "matchDate",
              "type": "string"
            },
            {
              "components": [
                {
                  "internalType": "string",
                  "name": "homeTeamName",
                  "type": "string"
                },
                {
                  "internalType": "string",
                  "name": "homeTeamSymbol",
                  "type": "string"
                },
                {
                  "internalType": "string",
                  "name": "homeTeamLogo",
                  "type": "string"
                },
                {
                  "internalType": "string",
                  "name": "homeTeamColor",
                  "type": "string"
                },
                {
                  "internalType": "string",
                  "name": "awayTeamName",
                  "type": "string"
                },
                {
                  "internalType": "string",
                  "name": "awayTeamSymbol",
                  "type": "string"
                },
                {
                  "internalType": "string",
                  "name": "awayTeamLogo",
                  "type": "string"
                },
                {
                  "internalType": "string",
                  "name": "awayTeamColor",
                  "type": "string"
                },
                {
                  "internalType": "string",
                  "name": "qrCodeUrl",
                  "type": "string"
                },
                {
                  "internalType": "string",
                  "name": "dateLine1",
                  "type": "string"
                },
                {
                  "internalType": "string",
                  "name": "dateLine2",
                  "type": "string"
                },
                {
                  "internalType": "string",
                  "name": "locationLine1",
                  "type": "string"
                },
                {
                  "internalType": "string",
                  "name": "locationLine2",
                  "type": "string"
                }
              ],
              "internalType": "struct PockyCollections.TicketSVGMetadata",
              "name": "ticketSvgMetadata",
              "type": "tuple"
            },
            {
              "internalType": "string",
              "name": "eventLocation",
              "type": "string"
            },
            {
              "internalType": "string",
              "name": "description",
              "type": "string"
            },
            {
              "internalType": "string",
              "name": "imageUrl",
              "type": "string"
            },
            {
              "internalType": "bool",
              "name": "featured",
              "type": "bool"
            },
            {
              "internalType": "bool",
              "name": "updated",
              "type": "bool"
            },
            {
              "components": [
                {
                  "internalType": "string",
                  "name": "homeScore",
                  "type": "string"
                },
                {
                  "internalType": "string",
                  "name": "homeFGM",
                  "type": "string"
                },
                {
                  "internalType": "string",
                  "name": "homeFGP",
                  "type": "string"
                },
                {
                  "internalType": "string",
                  "name": "homeTPM",
                  "type": "string"
                },
                {
                  "internalType": "string",
                  "name": "homeTPP",
                  "type": "string"
                },
                {
                  "internalType": "string",
                  "name": "homeFTM",
                  "type": "string"
                },
                {
                  "internalType": "string",
                  "name": "homeFTP",
                  "type": "string"
                },
                {
                  "internalType": "string",
                  "name": "awayScore",
                  "type": "string"
                },
                {
                  "internalType": "string",
                  "name": "awayFGM",
                  "type": "string"
                },
                {
                  "internalType": "string",
                  "name": "awayFGP",
                  "type": "string"
                },
                {
                  "internalType": "string",
                  "name": "awayTPM",
                  "type": "string"
                },
                {
                  "internalType": "string",
                  "name": "awayTPP",
                  "type": "string"
                },
                {
                  "internalType": "string",
                  "name": "awayFTM",
                  "type": "string"
                },
                {
                  "internalType": "string",
                  "name": "awayFTP",
                  "type": "string"
                }
              ],
              "internalType": "struct PockyCollections.OracleResult",
              "name": "eventResult",
              "type": "tuple"
            }
          ],
          "internalType": "struct PockyCollections.Collection[]",
          "name": "",
          "type": "tuple[]"
        }
      ],
      "stateMutability": "view",
      "type": "function"
    },
    {
      "inputs": [
        {
          "components": [
            {
              "internalType": "string",
              "name": "name",
              "type": "string"
            },
            {
              "internalType": "uint256",
              "name": "priceInETH",
              "type": "uint256"
            },
            {
              "internalType": "address",
              "name": "owner",
              "type": "address"
            },
            {
              "internalType": "uint256",
              "name": "maxSupply",
              "type": "uint256"
            },
            {
              "internalType": "uint256",
              "name": "startDate",
              "type": "uint256"
            },
            {
              "internalType": "uint256",
              "name": "endDate",
              "type": "uint256"
            },
            {
              "internalType": "string",
              "name": "matchDate",
              "type": "string"
            },
            {
              "components": [
                {
                  "internalType": "string",
                  "name": "homeTeamName",
                  "type": "string"
                },
                {
                  "internalType": "string",
                  "name": "homeTeamSymbol",
                  "type": "string"
                },
                {
                  "internalType": "string",
                  "name": "homeTeamLogo",
                  "type": "string"
                },
                {
                  "internalType": "string",
                  "name": "homeTeamColor",
                  "type": "string"
                },
                {
                  "internalType": "string",
                  "name": "awayTeamName",
                  "type": "string"
                },
                {
                  "internalType": "string",
                  "name": "awayTeamSymbol",
                  "type": "string"
                },
                {
                  "internalType": "string",
                  "name": "awayTeamLogo",
                  "type": "string"
                },
                {
                  "internalType": "string",
                  "name": "awayTeamColor",
                  "type": "string"
                },
                {
                  "internalType": "string",
                  "name": "qrCodeUrl",
                  "type": "string"
                },
                {
                  "internalType": "string",
                  "name": "dateLine1",
                  "type": "string"
                },
                {
                  "internalType": "string",
                  "name": "dateLine2",
                  "type": "string"
                },
                {
                  "internalType": "string",
                  "name": "locationLine1",
                  "type": "string"
                },
                {
                  "internalType": "string",
                  "name": "locationLine2",
                  "type": "string"
                }
              ],
              "internalType": "struct PockyCollections.TicketSVGMetadata",
              "name": "ticketSvgMetadata",
              "type": "tuple"
            },
            {
              "internalType": "string",
              "name": "eventLocation",
              "type": "string"
            },
            {
              "internalType": "string",
              "name": "description",
              "type": "string"
            },
            {
              "internalType": "string",
              "name": "imageUrl",
              "type": "string"
            },
            {
              "internalType": "bool",
              "name": "featured",
              "type": "bool"
            },
            {
              "internalType": "bool",
              "name": "updated",
              "type": "bool"
            },
            {
              "components": [
                {
                  "internalType": "string",
                  "name": "homeScore",
                  "type": "string"
                },
                {
                  "internalType": "string",
                  "name": "homeFGM",
                  "type": "string"
                },
                {
                  "internalType": "string",
                  "name": "homeFGP",
                  "type": "string"
                },
                {
                  "internalType": "string",
                  "name": "homeTPM",
                  "type": "string"
                },
                {
                  "internalType": "string",
                  "name": "homeTPP",
                  "type": "string"
                },
                {
                  "internalType": "string",
                  "name": "homeFTM",
                  "type": "string"
                },
                {
                  "internalType": "string",
                  "name": "homeFTP",
                  "type": "string"
                },
                {
                  "internalType": "string",
                  "name": "awayScore",
                  "type": "string"
                },
                {
                  "internalType": "string",
                  "name": "awayFGM",
                  "type": "string"
                },
                {
                  "internalType": "string",
                  "name": "awayFGP",
                  "type": "string"
                },
                {
                  "internalType": "string",
                  "name": "awayTPM",
                  "type": "string"
                },
                {
                  "internalType": "string",
                  "name": "awayTPP",
                  "type": "string"
                },
                {
                  "internalType": "string",
                  "name": "awayFTM",
                  "type": "string"
                },
                {
                  "internalType": "string",
                  "name": "awayFTP",
                  "type": "string"
                }
              ],
              "internalType": "struct PockyCollections.OracleResult",
              "name": "eventResult",
              "type": "tuple"
            }
          ],
          "internalType": "struct PockyCollections.Collection",
          "name": "collection",
          "type": "tuple"
        }
      ],
      "name": "register",
      "outputs": [],
      "stateMutability": "nonpayable",
      "type": "function"
    },
    {
      "inputs": [
        {
          "internalType": "bytes32",
          "name": "role",
          "type": "bytes32"
        },
        {
          "internalType": "address",
          "name": "account",
          "type": "address"
        }
      ],
      "name": "renounceRole",
      "outputs": [],
      "stateMutability": "nonpayable",
      "type": "function"
    },
    {
      "inputs": [
        {
          "internalType": "bytes32",
          "name": "role",
          "type": "bytes32"
        },
        {
          "internalType": "address",
          "name": "account",
          "type": "address"
        }
      ],
      "name": "revokeRole",
      "outputs": [],
      "stateMutability": "nonpayable",
      "type": "function"
    },
    {
      "inputs": [
        {
          "internalType": "bytes4",
          "name": "interfaceId",
          "type": "bytes4"
        }
      ],
      "name": "supportsInterface",
      "outputs": [
        {
          "internalType": "bool",
          "name": "",
          "type": "bool"
        }
      ],
      "stateMutability": "view",
      "type": "function"
    },
    {
      "inputs": [
        {
          "internalType": "uint256",
          "name": "collectionId",
          "type": "uint256"
        }
      ],
      "name": "svgOf",
      "outputs": [
        {
          "internalType": "string",
          "name": "",
          "type": "string"
        }
      ],
      "stateMutability": "view",
      "type": "function"
    },
    {
      "inputs": [
        {
          "internalType": "uint256",
          "name": "collectionId",
          "type": "uint256"
        },
        {
          "components": [
            {
              "internalType": "string",
              "name": "homeScore",
              "type": "string"
            },
            {
              "internalType": "string",
              "name": "homeFGM",
              "type": "string"
            },
            {
              "internalType": "string",
              "name": "homeFGP",
              "type": "string"
            },
            {
              "internalType": "string",
              "name": "homeTPM",
              "type": "string"
            },
            {
              "internalType": "string",
              "name": "homeTPP",
              "type": "string"
            },
            {
              "internalType": "string",
              "name": "homeFTM",
              "type": "string"
            },
            {
              "internalType": "string",
              "name": "homeFTP",
              "type": "string"
            },
            {
              "internalType": "string",
              "name": "awayScore",
              "type": "string"
            },
            {
              "internalType": "string",
              "name": "awayFGM",
              "type": "string"
            },
            {
              "internalType": "string",
              "name": "awayFGP",
              "type": "string"
            },
            {
              "internalType": "string",
              "name": "awayTPM",
              "type": "string"
            },
            {
              "internalType": "string",
              "name": "awayTPP",
              "type": "string"
            },
            {
              "internalType": "string",
              "name": "awayFTM",
              "type": "string"
            },
            {
              "internalType": "string",
              "name": "awayFTP",
              "type": "string"
            }
          ],
          "internalType": "struct PockyCollections.OracleResult",
          "name": "result",
          "type": "tuple"
        }
      ],
      "name": "updateResult",
      "outputs": [],
      "stateMutability": "nonpayable",
      "type": "function"
    }
  ],
  "transactionHash": "0x2ff003e3fc433477a49eb862ae6d0e4cfa1eecc4701aea9cabcce53d5fc1315b",
  "args": [],
  "numDeployments": 1,
  "solcInputHash": "9a05a5c191857363a33e43ee8ec18ba5",
  "bytecode": "0x60806040523480156200001157600080fd5b506200001f6000336200007d565b6200004b7fedcc084d3dcd65a1f7f23c65c46722faca6953d28e43150a467cf43e5c309238336200007d565b620000777ffb00fa0c30af3f14d2520274f3a36283c33ef91fc8bc1f424b133d150af8e805336200007d565b6200012d565b6200008982826200008d565b5050565b6000828152602081815260408083206001600160a01b038516845290915290205460ff1662000089576000828152602081815260408083206001600160a01b03851684529091529020805460ff19166001179055620000e93390565b6001600160a01b0316816001600160a01b0316837f2f8788117e7eff1d82e926ec794901d17c78024a50270940304540a733656f0d60405160405180910390a45050565b614950806200013d6000396000f3fe608060405234801561001057600080fd5b50600436106101005760003560e01c80639507d39a11610097578063cf88a82411610066578063cf88a8241461025a578063d547741f1461027a578063e2ae5f131461028d578063f68e9553146102a057600080fd5b80639507d39a146101f8578063979db21b14610218578063a217fddf1461023f578063c79c5bec1461024757600080fd5b806336568abe116100d357806336568abe146101885780634f558e791461019b5780635abdb98b146101ae57806391d14854146101c157600080fd5b806301ffc9a7146101055780630f560cd71461012d578063248a9ca3146101425780632f2ff15d14610173575b600080fd5b61011861011336600461349d565b6102c7565b60405190151581526020015b60405180910390f35b610135610360565b6040516101249190613922565b610165610150366004613984565b60009081526020819052604090206001015490565b604051908152602001610124565b6101866101813660046139b2565b61168d565b005b6101866101963660046139b2565b6116b7565b6101186101a9366004613984565b611748565b6101866101bc3660046139fb565b611784565b6101186101cf3660046139b2565b6000918252602082815260408084206001600160a01b0393909316845291905290205460ff1690565b61020b610206366004613984565b6117f4565b6040516101249190613a38565b6101657ffb00fa0c30af3f14d2520274f3a36283c33ef91fc8bc1f424b133d150af8e80581565b610165600081565b610186610255366004613a4b565b612b51565b61026d610268366004613984565b612c45565b6040516101249190613a92565b6101866102883660046139b2565b612d4e565b61026d61029b366004613984565b612d73565b6101657fedcc084d3dcd65a1f7f23c65c46722faca6953d28e43150a467cf43e5c30923881565b60007fffffffff0000000000000000000000000000000000000000000000000000000082167f7965db0b00000000000000000000000000000000000000000000000000000000148061035a57507f01ffc9a7000000000000000000000000000000000000000000000000000000007fffffffff000000000000000000000000000000000000000000000000000000008316145b92915050565b60606001805480602002602001604051908101604052809291908181526020016000905b828210156116845783829060005260206000209060260201604051806101c00160405290816000820180546103b890613aa5565b80601f01602080910402602001604051908101604052809291908181526020018280546103e490613aa5565b80156104315780601f1061040657610100808354040283529160200191610431565b820191906000526020600020905b81548152906001019060200180831161041457829003601f168201915b50505091835250506001820154602082015260028201546001600160a01b031660408201526003820154606082015260048201546080820152600582015460a082015260068201805460c09092019161048990613aa5565b80601f01602080910402602001604051908101604052809291908181526020018280546104b590613aa5565b80156105025780601f106104d757610100808354040283529160200191610502565b820191906000526020600020905b8154815290600101906020018083116104e557829003601f168201915b5050505050815260200160078201604051806101a001604052908160008201805461052c90613aa5565b80601f016020809104026020016040519081016040528092919081815260200182805461055890613aa5565b80156105a55780601f1061057a576101008083540402835291602001916105a5565b820191906000526020600020905b81548152906001019060200180831161058857829003601f168201915b505050505081526020016001820180546105be90613aa5565b80601f01602080910402602001604051908101604052809291908181526020018280546105ea90613aa5565b80156106375780601f1061060c57610100808354040283529160200191610637565b820191906000526020600020905b81548152906001019060200180831161061a57829003601f168201915b5050505050815260200160028201805461065090613aa5565b80601f016020809104026020016040519081016040528092919081815260200182805461067c90613aa5565b80156106c95780601f1061069e576101008083540402835291602001916106c9565b820191906000526020600020905b8154815290600101906020018083116106ac57829003601f168201915b505050505081526020016003820180546106e290613aa5565b80601f016020809104026020016040519081016040528092919081815260200182805461070e90613aa5565b801561075b5780601f106107305761010080835404028352916020019161075b565b820191906000526020600020905b81548152906001019060200180831161073e57829003601f168201915b5050505050815260200160048201805461077490613aa5565b80601f01602080910402602001604051908101604052809291908181526020018280546107a090613aa5565b80156107ed5780601f106107c2576101008083540402835291602001916107ed565b820191906000526020600020905b8154815290600101906020018083116107d057829003601f168201915b5050505050815260200160058201805461080690613aa5565b80601f016020809104026020016040519081016040528092919081815260200182805461083290613aa5565b801561087f5780601f106108545761010080835404028352916020019161087f565b820191906000526020600020905b81548152906001019060200180831161086257829003601f168201915b5050505050815260200160068201805461089890613aa5565b80601f01602080910402602001604051908101604052809291908181526020018280546108c490613aa5565b80156109115780601f106108e657610100808354040283529160200191610911565b820191906000526020600020905b8154815290600101906020018083116108f457829003601f168201915b5050505050815260200160078201805461092a90613aa5565b80601f016020809104026020016040519081016040528092919081815260200182805461095690613aa5565b80156109a35780601f10610978576101008083540402835291602001916109a3565b820191906000526020600020905b81548152906001019060200180831161098657829003601f168201915b505050505081526020016008820180546109bc90613aa5565b80601f01602080910402602001604051908101604052809291908181526020018280546109e890613aa5565b8015610a355780601f10610a0a57610100808354040283529160200191610a35565b820191906000526020600020905b815481529060010190602001808311610a1857829003601f168201915b50505050508152602001600982018054610a4e90613aa5565b80601f0160208091040260200160405190810160405280929190818152602001828054610a7a90613aa5565b8015610ac75780601f10610a9c57610100808354040283529160200191610ac7565b820191906000526020600020905b815481529060010190602001808311610aaa57829003601f168201915b50505050508152602001600a82018054610ae090613aa5565b80601f0160208091040260200160405190810160405280929190818152602001828054610b0c90613aa5565b8015610b595780601f10610b2e57610100808354040283529160200191610b59565b820191906000526020600020905b815481529060010190602001808311610b3c57829003601f168201915b50505050508152602001600b82018054610b7290613aa5565b80601f0160208091040260200160405190810160405280929190818152602001828054610b9e90613aa5565b8015610beb5780601f10610bc057610100808354040283529160200191610beb565b820191906000526020600020905b815481529060010190602001808311610bce57829003601f168201915b50505050508152602001600c82018054610c0490613aa5565b80601f0160208091040260200160405190810160405280929190818152602001828054610c3090613aa5565b8015610c7d5780601f10610c5257610100808354040283529160200191610c7d565b820191906000526020600020905b815481529060010190602001808311610c6057829003601f168201915b5050505050815250508152602001601482018054610c9a90613aa5565b80601f0160208091040260200160405190810160405280929190818152602001828054610cc690613aa5565b8015610d135780601f10610ce857610100808354040283529160200191610d13565b820191906000526020600020905b815481529060010190602001808311610cf657829003601f168201915b50505050508152602001601582018054610d2c90613aa5565b80601f0160208091040260200160405190810160405280929190818152602001828054610d5890613aa5565b8015610da55780601f10610d7a57610100808354040283529160200191610da5565b820191906000526020600020905b815481529060010190602001808311610d8857829003601f168201915b50505050508152602001601682018054610dbe90613aa5565b80601f0160208091040260200160405190810160405280929190818152602001828054610dea90613aa5565b8015610e375780601f10610e0c57610100808354040283529160200191610e37565b820191906000526020600020905b815481529060010190602001808311610e1a57829003601f168201915b5050509183525050601782015460ff8082161515602084015261010090910416151560408083019190915280516101c0810190915260188301805460609093019282908290610e8590613aa5565b80601f0160208091040260200160405190810160405280929190818152602001828054610eb190613aa5565b8015610efe5780601f10610ed357610100808354040283529160200191610efe565b820191906000526020600020905b815481529060010190602001808311610ee157829003601f168201915b50505050508152602001600182018054610f1790613aa5565b80601f0160208091040260200160405190810160405280929190818152602001828054610f4390613aa5565b8015610f905780601f10610f6557610100808354040283529160200191610f90565b820191906000526020600020905b815481529060010190602001808311610f7357829003601f168201915b50505050508152602001600282018054610fa990613aa5565b80601f0160208091040260200160405190810160405280929190818152602001828054610fd590613aa5565b80156110225780601f10610ff757610100808354040283529160200191611022565b820191906000526020600020905b81548152906001019060200180831161100557829003601f168201915b5050505050815260200160038201805461103b90613aa5565b80601f016020809104026020016040519081016040528092919081815260200182805461106790613aa5565b80156110b45780601f10611089576101008083540402835291602001916110b4565b820191906000526020600020905b81548152906001019060200180831161109757829003601f168201915b505050505081526020016004820180546110cd90613aa5565b80601f01602080910402602001604051908101604052809291908181526020018280546110f990613aa5565b80156111465780601f1061111b57610100808354040283529160200191611146565b820191906000526020600020905b81548152906001019060200180831161112957829003601f168201915b5050505050815260200160058201805461115f90613aa5565b80601f016020809104026020016040519081016040528092919081815260200182805461118b90613aa5565b80156111d85780601f106111ad576101008083540402835291602001916111d8565b820191906000526020600020905b8154815290600101906020018083116111bb57829003601f168201915b505050505081526020016006820180546111f190613aa5565b80601f016020809104026020016040519081016040528092919081815260200182805461121d90613aa5565b801561126a5780601f1061123f5761010080835404028352916020019161126a565b820191906000526020600020905b81548152906001019060200180831161124d57829003601f168201915b5050505050815260200160078201805461128390613aa5565b80601f01602080910402602001604051908101604052809291908181526020018280546112af90613aa5565b80156112fc5780601f106112d1576101008083540402835291602001916112fc565b820191906000526020600020905b8154815290600101906020018083116112df57829003601f168201915b5050505050815260200160088201805461131590613aa5565b80601f016020809104026020016040519081016040528092919081815260200182805461134190613aa5565b801561138e5780601f106113635761010080835404028352916020019161138e565b820191906000526020600020905b81548152906001019060200180831161137157829003601f168201915b505050505081526020016009820180546113a790613aa5565b80601f01602080910402602001604051908101604052809291908181526020018280546113d390613aa5565b80156114205780601f106113f557610100808354040283529160200191611420565b820191906000526020600020905b81548152906001019060200180831161140357829003601f168201915b50505050508152602001600a8201805461143990613aa5565b80601f016020809104026020016040519081016040528092919081815260200182805461146590613aa5565b80156114b25780601f10611487576101008083540402835291602001916114b2565b820191906000526020600020905b81548152906001019060200180831161149557829003601f168201915b50505050508152602001600b820180546114cb90613aa5565b80601f01602080910402602001604051908101604052809291908181526020018280546114f790613aa5565b80156115445780601f1061151957610100808354040283529160200191611544565b820191906000526020600020905b81548152906001019060200180831161152757829003601f168201915b50505050508152602001600c8201805461155d90613aa5565b80601f016020809104026020016040519081016040528092919081815260200182805461158990613aa5565b80156115d65780601f106115ab576101008083540402835291602001916115d6565b820191906000526020600020905b8154815290600101906020018083116115b957829003601f168201915b50505050508152602001600d820180546115ef90613aa5565b80601f016020809104026020016040519081016040528092919081815260200182805461161b90613aa5565b80156116685780601f1061163d57610100808354040283529160200191611668565b820191906000526020600020905b81548152906001019060200180831161164b57829003601f168201915b5050505050815250508152505081526020019060010190610384565b50505050905090565b6000828152602081905260409020600101546116a881612e1d565b6116b28383612e2a565b505050565b6001600160a01b038116331461173a5760405162461bcd60e51b815260206004820152602f60248201527f416363657373436f6e74726f6c3a2063616e206f6e6c792072656e6f756e636560448201527f20726f6c657320666f722073656c66000000000000000000000000000000000060648201526084015b60405180910390fd5b6117448282612ec8565b5050565b6000806001838154811061175e5761175e613ad9565b9060005260206000209060260201600001805461177a90613aa5565b9050119050919050565b7fedcc084d3dcd65a1f7f23c65c46722faca6953d28e43150a467cf43e5c3092386117ae81612e1d565b60018054808201825560009190915282906026027fb10e2d527612073b26eecdfd717e6a320cf44b4afac2b0732d9fcbe2b7fa0cf6016117ee8282613fc3565b50505050565b6117fc613349565b61180582611748565b6118515760405162461bcd60e51b815260206004820152601960248201527f636f6c6c656374696f6e20646f6573206e6f74206578697374000000000000006044820152606401611731565b6001828154811061186457611864613ad9565b9060005260206000209060260201604051806101c001604052908160008201805461188e90613aa5565b80601f01602080910402602001604051908101604052809291908181526020018280546118ba90613aa5565b80156119075780601f106118dc57610100808354040283529160200191611907565b820191906000526020600020905b8154815290600101906020018083116118ea57829003601f168201915b50505091835250506001820154602082015260028201546001600160a01b031660408201526003820154606082015260048201546080820152600582015460a082015260068201805460c09092019161195f90613aa5565b80601f016020809104026020016040519081016040528092919081815260200182805461198b90613aa5565b80156119d85780601f106119ad576101008083540402835291602001916119d8565b820191906000526020600020905b8154815290600101906020018083116119bb57829003601f168201915b5050505050815260200160078201604051806101a0016040529081600082018054611a0290613aa5565b80601f0160208091040260200160405190810160405280929190818152602001828054611a2e90613aa5565b8015611a7b5780601f10611a5057610100808354040283529160200191611a7b565b820191906000526020600020905b815481529060010190602001808311611a5e57829003601f168201915b50505050508152602001600182018054611a9490613aa5565b80601f0160208091040260200160405190810160405280929190818152602001828054611ac090613aa5565b8015611b0d5780601f10611ae257610100808354040283529160200191611b0d565b820191906000526020600020905b815481529060010190602001808311611af057829003601f168201915b50505050508152602001600282018054611b2690613aa5565b80601f0160208091040260200160405190810160405280929190818152602001828054611b5290613aa5565b8015611b9f5780601f10611b7457610100808354040283529160200191611b9f565b820191906000526020600020905b815481529060010190602001808311611b8257829003601f168201915b50505050508152602001600382018054611bb890613aa5565b80601f0160208091040260200160405190810160405280929190818152602001828054611be490613aa5565b8015611c315780601f10611c0657610100808354040283529160200191611c31565b820191906000526020600020905b815481529060010190602001808311611c1457829003601f168201915b50505050508152602001600482018054611c4a90613aa5565b80601f0160208091040260200160405190810160405280929190818152602001828054611c7690613aa5565b8015611cc35780601f10611c9857610100808354040283529160200191611cc3565b820191906000526020600020905b815481529060010190602001808311611ca657829003601f168201915b50505050508152602001600582018054611cdc90613aa5565b80601f0160208091040260200160405190810160405280929190818152602001828054611d0890613aa5565b8015611d555780601f10611d2a57610100808354040283529160200191611d55565b820191906000526020600020905b815481529060010190602001808311611d3857829003601f168201915b50505050508152602001600682018054611d6e90613aa5565b80601f0160208091040260200160405190810160405280929190818152602001828054611d9a90613aa5565b8015611de75780601f10611dbc57610100808354040283529160200191611de7565b820191906000526020600020905b815481529060010190602001808311611dca57829003601f168201915b50505050508152602001600782018054611e0090613aa5565b80601f0160208091040260200160405190810160405280929190818152602001828054611e2c90613aa5565b8015611e795780601f10611e4e57610100808354040283529160200191611e79565b820191906000526020600020905b815481529060010190602001808311611e5c57829003601f168201915b50505050508152602001600882018054611e9290613aa5565b80601f0160208091040260200160405190810160405280929190818152602001828054611ebe90613aa5565b8015611f0b5780601f10611ee057610100808354040283529160200191611f0b565b820191906000526020600020905b815481529060010190602001808311611eee57829003601f168201915b50505050508152602001600982018054611f2490613aa5565b80601f0160208091040260200160405190810160405280929190818152602001828054611f5090613aa5565b8015611f9d5780601f10611f7257610100808354040283529160200191611f9d565b820191906000526020600020905b815481529060010190602001808311611f8057829003601f168201915b50505050508152602001600a82018054611fb690613aa5565b80601f0160208091040260200160405190810160405280929190818152602001828054611fe290613aa5565b801561202f5780601f106120045761010080835404028352916020019161202f565b820191906000526020600020905b81548152906001019060200180831161201257829003601f168201915b50505050508152602001600b8201805461204890613aa5565b80601f016020809104026020016040519081016040528092919081815260200182805461207490613aa5565b80156120c15780601f10612096576101008083540402835291602001916120c1565b820191906000526020600020905b8154815290600101906020018083116120a457829003601f168201915b50505050508152602001600c820180546120da90613aa5565b80601f016020809104026020016040519081016040528092919081815260200182805461210690613aa5565b80156121535780601f1061212857610100808354040283529160200191612153565b820191906000526020600020905b81548152906001019060200180831161213657829003601f168201915b505050505081525050815260200160148201805461217090613aa5565b80601f016020809104026020016040519081016040528092919081815260200182805461219c90613aa5565b80156121e95780601f106121be576101008083540402835291602001916121e9565b820191906000526020600020905b8154815290600101906020018083116121cc57829003601f168201915b5050505050815260200160158201805461220290613aa5565b80601f016020809104026020016040519081016040528092919081815260200182805461222e90613aa5565b801561227b5780601f106122505761010080835404028352916020019161227b565b820191906000526020600020905b81548152906001019060200180831161225e57829003601f168201915b5050505050815260200160168201805461229490613aa5565b80601f01602080910402602001604051908101604052809291908181526020018280546122c090613aa5565b801561230d5780601f106122e25761010080835404028352916020019161230d565b820191906000526020600020905b8154815290600101906020018083116122f057829003601f168201915b5050509183525050601782015460ff8082161515602084015261010090910416151560408083019190915280516101c081019091526018830180546060909301928290829061235b90613aa5565b80601f016020809104026020016040519081016040528092919081815260200182805461238790613aa5565b80156123d45780601f106123a9576101008083540402835291602001916123d4565b820191906000526020600020905b8154815290600101906020018083116123b757829003601f168201915b505050505081526020016001820180546123ed90613aa5565b80601f016020809104026020016040519081016040528092919081815260200182805461241990613aa5565b80156124665780601f1061243b57610100808354040283529160200191612466565b820191906000526020600020905b81548152906001019060200180831161244957829003601f168201915b5050505050815260200160028201805461247f90613aa5565b80601f01602080910402602001604051908101604052809291908181526020018280546124ab90613aa5565b80156124f85780601f106124cd576101008083540402835291602001916124f8565b820191906000526020600020905b8154815290600101906020018083116124db57829003601f168201915b5050505050815260200160038201805461251190613aa5565b80601f016020809104026020016040519081016040528092919081815260200182805461253d90613aa5565b801561258a5780601f1061255f5761010080835404028352916020019161258a565b820191906000526020600020905b81548152906001019060200180831161256d57829003601f168201915b505050505081526020016004820180546125a390613aa5565b80601f01602080910402602001604051908101604052809291908181526020018280546125cf90613aa5565b801561261c5780601f106125f15761010080835404028352916020019161261c565b820191906000526020600020905b8154815290600101906020018083116125ff57829003601f168201915b5050505050815260200160058201805461263590613aa5565b80601f016020809104026020016040519081016040528092919081815260200182805461266190613aa5565b80156126ae5780601f10612683576101008083540402835291602001916126ae565b820191906000526020600020905b81548152906001019060200180831161269157829003601f168201915b505050505081526020016006820180546126c790613aa5565b80601f01602080910402602001604051908101604052809291908181526020018280546126f390613aa5565b80156127405780601f1061271557610100808354040283529160200191612740565b820191906000526020600020905b81548152906001019060200180831161272357829003601f168201915b5050505050815260200160078201805461275990613aa5565b80601f016020809104026020016040519081016040528092919081815260200182805461278590613aa5565b80156127d25780601f106127a7576101008083540402835291602001916127d2565b820191906000526020600020905b8154815290600101906020018083116127b557829003601f168201915b505050505081526020016008820180546127eb90613aa5565b80601f016020809104026020016040519081016040528092919081815260200182805461281790613aa5565b80156128645780601f1061283957610100808354040283529160200191612864565b820191906000526020600020905b81548152906001019060200180831161284757829003601f168201915b5050505050815260200160098201805461287d90613aa5565b80601f01602080910402602001604051908101604052809291908181526020018280546128a990613aa5565b80156128f65780601f106128cb576101008083540402835291602001916128f6565b820191906000526020600020905b8154815290600101906020018083116128d957829003601f168201915b50505050508152602001600a8201805461290f90613aa5565b80601f016020809104026020016040519081016040528092919081815260200182805461293b90613aa5565b80156129885780601f1061295d57610100808354040283529160200191612988565b820191906000526020600020905b81548152906001019060200180831161296b57829003601f168201915b50505050508152602001600b820180546129a190613aa5565b80601f01602080910402602001604051908101604052809291908181526020018280546129cd90613aa5565b8015612a1a5780601f106129ef57610100808354040283529160200191612a1a565b820191906000526020600020905b8154815290600101906020018083116129fd57829003601f168201915b50505050508152602001600c82018054612a3390613aa5565b80601f0160208091040260200160405190810160405280929190818152602001828054612a5f90613aa5565b8015612aac5780601f10612a8157610100808354040283529160200191612aac565b820191906000526020600020905b815481529060010190602001808311612a8f57829003601f168201915b50505050508152602001600d82018054612ac590613aa5565b80601f0160208091040260200160405190810160405280929190818152602001828054612af190613aa5565b8015612b3e5780601f10612b1357610100808354040283529160200191612b3e565b820191906000526020600020905b815481529060010190602001808311612b2157829003601f168201915b5050509190925250505090525092915050565b7ffb00fa0c30af3f14d2520274f3a36283c33ef91fc8bc1f424b133d150af8e805612b7b81612e1d565b612b8483611748565b612bd05760405162461bcd60e51b815260206004820152601960248201527f636f6c6c656374696f6e20646f6573206e6f74206578697374000000000000006044820152606401611731565b8160018481548110612be457612be4613ad9565b90600052602060002090602602016018018181612c019190613e2f565b9050506001808481548110612c1857612c18613ad9565b906000526020600020906026020160170160016101000a81548160ff021916908315150217905550505050565b6060600060018381548110612c5c57612c5c613ad9565b906000526020600020906026020190506000612cf2731Ffa7ECdB47186B7215C98b2CAe5916F969C0C15636ad432ab846040518263ffffffff1660e01b8152600401612ca89190614436565b600060405180830381865af4158015612cc5573d6000803e3d6000fd5b505050506040513d6000823e601f3d908101601f19168201604052612ced919081019061455e565b612f47565b9050612d26826000018360150183604051602001612d129392919061467e565b604051602081830303815290604052612f47565b604051602001612d36919061479b565b60405160208183030381529060405292505050919050565b600082815260208190526040902060010154612d6981612e1d565b6116b28383612ec8565b6060600060018381548110612d8a57612d8a613ad9565b90600052602060002090602602019050731Ffa7ECdB47186B7215C98b2CAe5916F969C0C15636ad432ab826040518263ffffffff1660e01b8152600401612dd19190614436565b600060405180830381865af4158015612dee573d6000803e3d6000fd5b505050506040513d6000823e601f3d908101601f19168201604052612e16919081019061455e565b9392505050565b612e2781336130e3565b50565b6000828152602081815260408083206001600160a01b038516845290915290205460ff16611744576000828152602081815260408083206001600160a01b03851684529091529020805460ff19166001179055612e843390565b6001600160a01b0316816001600160a01b0316837f2f8788117e7eff1d82e926ec794901d17c78024a50270940304540a733656f0d60405160405180910390a45050565b6000828152602081815260408083206001600160a01b038516845290915290205460ff1615611744576000828152602081815260408083206001600160a01b0385168085529252808320805460ff1916905551339285917ff6391f5c32d9c69d2a47ea670b442974b53935d1edc7fd64eb21e047a839171b9190a45050565b60608151600003612f6657505060408051602081019091526000815290565b60006040518060600160405280604081526020016148db6040913990506000600384516002612f9591906147f6565b612f9f9190614809565b612faa90600461482b565b90506000612fb98260206147f6565b67ffffffffffffffff811115612fd157612fd1613b3d565b6040519080825280601f01601f191660200182016040528015612ffb576020820181803683370190505b509050818152600183018586518101602084015b81831015613067576003830192508251603f8160121c168501518253600182019150603f81600c1c168501518253600182019150603f8160061c168501518253600182019150603f811685015182535060010161300f565b60038951066001811461308157600281146130ad576130d5565b7f3d3d0000000000000000000000000000000000000000000000000000000000006001198301526130d5565b7f3d000000000000000000000000000000000000000000000000000000000000006000198301525b509398975050505050505050565b6000828152602081815260408083206001600160a01b038516845290915290205460ff166117445761311481613156565b61311f836020613168565b604051602001613130929190614842565b60408051601f198184030181529082905262461bcd60e51b825261173191600401613a92565b606061035a6001600160a01b03831660145b6060600061317783600261482b565b6131829060026147f6565b67ffffffffffffffff81111561319a5761319a613b3d565b6040519080825280601f01601f1916602001820160405280156131c4576020820181803683370190505b5090507f3000000000000000000000000000000000000000000000000000000000000000816000815181106131fb576131fb613ad9565b60200101906001600160f81b031916908160001a9053507f78000000000000000000000000000000000000000000000000000000000000008160018151811061324657613246613ad9565b60200101906001600160f81b031916908160001a905350600061326a84600261482b565b6132759060016147f6565b90505b60018111156132fa577f303132333435363738396162636465660000000000000000000000000000000085600f16601081106132b6576132b6613ad9565b1a60f81b8282815181106132cc576132cc613ad9565b60200101906001600160f81b031916908160001a90535060049490941c936132f3816148c3565b9050613278565b508315612e165760405162461bcd60e51b815260206004820181905260248201527f537472696e67733a20686578206c656e67746820696e73756666696369656e746044820152606401611731565b604051806101c00160405280606081526020016000815260200160006001600160a01b03168152602001600081526020016000815260200160008152602001606081526020016133fa604051806101a00160405280606081526020016060815260200160608152602001606081526020016060815260200160608152602001606081526020016060815260200160608152602001606081526020016060815260200160608152602001606081525090565b8152602001606081526020016060815260200160608152602001600015158152602001600015158152602001613498604051806101c0016040528060608152602001606081526020016060815260200160608152602001606081526020016060815260200160608152602001606081526020016060815260200160608152602001606081526020016060815260200160608152602001606081525090565b905290565b6000602082840312156134af57600080fd5b81357fffffffff0000000000000000000000000000000000000000000000000000000081168114612e1657600080fd5b60005b838110156134fa5781810151838201526020016134e2565b50506000910152565b6000815180845261351b8160208601602086016134df565b601f01601f19169290920160200192915050565b60006101a0825181855261354582860182613503565b9150506020830151848203602086015261355f8282613503565b915050604083015184820360408601526135798282613503565b915050606083015184820360608601526135938282613503565b915050608083015184820360808601526135ad8282613503565b91505060a083015184820360a08601526135c78282613503565b91505060c083015184820360c08601526135e18282613503565b91505060e083015184820360e08601526135fb8282613503565b91505061010080840151858303828701526136168382613503565b9250505061012080840151858303828701526136328382613503565b92505050610140808401518583038287015261364e8382613503565b92505050610160808401518583038287015261366a8382613503565b9250505061018080840151858303828701526136868382613503565b9695505050505050565b60006101c082518185526136a682860182613503565b915050602083015184820360208601526136c08282613503565b915050604083015184820360408601526136da8282613503565b915050606083015184820360608601526136f48282613503565b9150506080830151848203608086015261370e8282613503565b91505060a083015184820360a08601526137288282613503565b91505060c083015184820360c08601526137428282613503565b91505060e083015184820360e086015261375c8282613503565b91505061010080840151858303828701526137778382613503565b9250505061012080840151858303828701526137938382613503565b9250505061014080840151858303828701526137af8382613503565b9250505061016080840151858303828701526137cb8382613503565b9250505061018080840151858303828701526137e78382613503565b925050506101a080840151858303828701526136868382613503565b60006101c0825181855261381982860182613503565b91505060208301516020850152604083015161384060408601826001600160a01b03169052565b50606083015160608501526080830151608085015260a083015160a085015260c083015184820360c08601526138768282613503565b91505060e083015184820360e0860152613890828261352f565b91505061010080840151858303828701526138ab8382613503565b9250505061012080840151858303828701526138c78382613503565b9250505061014080840151858303828701526138e38382613503565b92505050610160808401516138fb8287018215159052565b5050610180838101511515908501526101a080840151858303828701526136868382613690565b6000602080830181845280855180835260408601915060408160051b870101925083870160005b8281101561397757603f19888603018452613965858351613803565b94509285019290850190600101613949565b5092979650505050505050565b60006020828403121561399657600080fd5b5035919050565b6001600160a01b0381168114612e2757600080fd5b600080604083850312156139c557600080fd5b8235915060208301356139d78161399d565b809150509250929050565b60006101c082840312156139f557600080fd5b50919050565b600060208284031215613a0d57600080fd5b813567ffffffffffffffff811115613a2457600080fd5b613a30848285016139e2565b949350505050565b602081526000612e166020830184613803565b60008060408385031215613a5e57600080fd5b82359150602083013567ffffffffffffffff811115613a7c57600080fd5b613a88858286016139e2565b9150509250929050565b602081526000612e166020830184613503565b600181811c90821680613ab957607f821691505b6020821081036139f557634e487b7160e01b600052602260045260246000fd5b634e487b7160e01b600052603260045260246000fd5b6000808335601e19843603018112613b0657600080fd5b83018035915067ffffffffffffffff821115613b2157600080fd5b602001915036819003821315613b3657600080fd5b9250929050565b634e487b7160e01b600052604160045260246000fd5b601f8211156116b257600081815260208120601f850160051c81016020861015613b7a5750805b601f850160051c820191505b81811015613b9957828155600101613b86565b505050505050565b67ffffffffffffffff831115613bb957613bb9613b3d565b613bcd83613bc78354613aa5565b83613b53565b6000601f841160018114613c015760008515613be95750838201355b600019600387901b1c1916600186901b178355613c5b565b600083815260209020601f19861690835b82811015613c325786850135825560209485019460019092019101613c12565b5086821015613c4f5760001960f88860031b161c19848701351681555b505060018560011b0183555b5050505050565b6000813561035a8161399d565b6000823561019e19833603018112613c8657600080fd5b9190910192915050565b613c9a8283613aef565b613ca5818385613ba1565b5050613cb46020830183613aef565b613cc2818360018601613ba1565b5050613cd16040830183613aef565b613cdf818360028601613ba1565b5050613cee6060830183613aef565b613cfc818360038601613ba1565b5050613d0b6080830183613aef565b613d19818360048601613ba1565b5050613d2860a0830183613aef565b613d36818360058601613ba1565b5050613d4560c0830183613aef565b613d53818360068601613ba1565b5050613d6260e0830183613aef565b613d70818360078601613ba1565b5050613d80610100830183613aef565b613d8e818360088601613ba1565b5050613d9e610120830183613aef565b613dac818360098601613ba1565b5050613dbc610140830183613aef565b613dca8183600a8601613ba1565b5050613dda610160830183613aef565b613de88183600b8601613ba1565b5050613df8610180830183613aef565b6117ee8183600c8601613ba1565b60008135801515811461035a57600080fd5b600082356101be19833603018112613c8657600080fd5b613e398283613aef565b613e44818385613ba1565b5050613e536020830183613aef565b613e61818360018601613ba1565b5050613e706040830183613aef565b613e7e818360028601613ba1565b5050613e8d6060830183613aef565b613e9b818360038601613ba1565b5050613eaa6080830183613aef565b613eb8818360048601613ba1565b5050613ec760a0830183613aef565b613ed5818360058601613ba1565b5050613ee460c0830183613aef565b613ef2818360068601613ba1565b5050613f0160e0830183613aef565b613f0f818360078601613ba1565b5050613f1f610100830183613aef565b613f2d818360088601613ba1565b5050613f3d610120830183613aef565b613f4b818360098601613ba1565b5050613f5b610140830183613aef565b613f698183600a8601613ba1565b5050613f79610160830183613aef565b613f878183600b8601613ba1565b5050613f97610180830183613aef565b613fa58183600c8601613ba1565b5050613fb56101a0830183613aef565b6117ee8183600d8601613ba1565b613fcd8283613aef565b613fd8818385613ba1565b50506020820135600182015561402c613ff360408401613c62565b600283016001600160a01b0382167fffffffffffffffffffffffff00000000000000000000000000000000000000008254161781555050565b606082013560038201556080820135600482015560a0820135600582015561405760c0830183613aef565b614065818360068601613ba1565b505061408061407760e0840184613c6f565b60078301613c90565b61408e610100830183613aef565b61409c818360148601613ba1565b50506140ac610120830183613aef565b6140ba818360158601613ba1565b50506140ca610140830183613aef565b6140d8818360168601613ba1565b5050601781016141026140ee6101608501613e06565b825490151560ff1660ff1991909116178255565b61412c6141126101808501613e06565b82805461ff00191691151560081b61ff0016919091179055565b5061174461413e6101a0840184613e18565b60188301613e2f565b6000815461415481613aa5565b808552602060018381168015614171576001811461418b576141b9565b60ff1985168884015283151560051b8801830195506141b9565b866000528260002060005b858110156141b15781548a8201860152908301908401614196565b890184019650505b505050505092915050565b60006101a08084526141d881850184614147565b905083810360208501526141ef8160018501614147565b905083810360408501526142068160028501614147565b9050838103606085015261421d8160038501614147565b905083810360808501526142348160048501614147565b905083810360a085015261424b8160058501614147565b905083810360c08501526142628160068501614147565b905083810360e08501526142798160078501614147565b90508381036101008501526142918160088501614147565b90508381036101208501526142a98160098501614147565b90508381036101408501526142c181600a8501614147565b90508381036101608501526142d981600b8501614147565b9050838103610180850152613a3081600c8501614147565b60006101c080845261430581850184614147565b9050838103602085015261431c8160018501614147565b905083810360408501526143338160028501614147565b9050838103606085015261434a8160038501614147565b905083810360808501526143618160048501614147565b905083810360a08501526143788160058501614147565b905083810360c085015261438f8160068501614147565b905083810360e08501526143a68160078501614147565b90508381036101008501526143be8160088501614147565b90508381036101208501526143d68160098501614147565b90508381036101408501526143ee81600a8501614147565b905083810361016085015261440681600b8501614147565b905083810361018085015261441e81600c8501614147565b90508381036101a0850152613a3081600d8501614147565b6020815260006101c08060208401526144536101e0840185614147565b6001850154604085015260028501546001600160a01b0316606085015260038501546080850152600485015460a0850152600585015460c0850152838103601f1990810160e08601526144a98260068801614147565b915080858303016101008601526144c382600788016141c4565b915080858303016101208601526144dd8260148801614147565b915080858303016101408601526144f78260158801614147565b915080858303016101608601526145118260168801614147565b9150601786015461452a610180870160ff831615159052565b61453f6101a0870160ff8360081c1615159052565b50848203018285015261455581601887016142f1565b95945050505050565b60006020828403121561457057600080fd5b815167ffffffffffffffff8082111561458857600080fd5b818401915084601f83011261459c57600080fd5b8151818111156145ae576145ae613b3d565b604051601f8201601f19908116603f011681019083821181831017156145d6576145d6613b3d565b816040528281528760208487010111156145ef57600080fd5b6146008360208301602088016134df565b979650505050505050565b6000815461461881613aa5565b60018281168015614630576001811461464557614674565b60ff1984168752821515830287019450614674565b8560005260208060002060005b8581101561466b5781548a820152908401908201614652565b50505082870194505b5050505092915050565b7f7b226e616d65223a220000000000000000000000000000000000000000000000815260006146b0600983018661460b565b7f202d20506f636b7920644e4654205469636b6574222c2022646573637269707481527f696f6e223a2200000000000000000000000000000000000000000000000000006020820152614706602682018661460b565b90507f222c2022616e696d6174696f6e5f75726c223a202268747470733a2f2f706f6381527f6b792e64656e6f2e6465762f72656e6465723f7376673d000000000000000000602082015283516147648160378401602088016134df565b7f227d0000000000000000000000000000000000000000000000000000000000006037929091019182015260390195945050505050565b7f646174613a6170706c69636174696f6e2f6a736f6e3b6261736536342c0000008152600082516147d381601d8501602087016134df565b91909101601d0192915050565b634e487b7160e01b600052601160045260246000fd5b8082018082111561035a5761035a6147e0565b60008261482657634e487b7160e01b600052601260045260246000fd5b500490565b808202811582820484141761035a5761035a6147e0565b7f416363657373436f6e74726f6c3a206163636f756e742000000000000000000081526000835161487a8160178501602088016134df565b7f206973206d697373696e6720726f6c652000000000000000000000000000000060179184019182015283516148b78160288401602088016134df565b01602801949350505050565b6000816148d2576148d26147e0565b50600019019056fe4142434445464748494a4b4c4d4e4f505152535455565758595a6162636465666768696a6b6c6d6e6f707172737475767778797a303132333435363738392b2fa2646970667358221220fb79bd39543dd1c4fb4c6d01bba003eb0c84255ae483e3123234c3235b66d67664736f6c63430008110033",
  "deployedBytecode": "0x608060405234801561001057600080fd5b50600436106101005760003560e01c80639507d39a11610097578063cf88a82411610066578063cf88a8241461025a578063d547741f1461027a578063e2ae5f131461028d578063f68e9553146102a057600080fd5b80639507d39a146101f8578063979db21b14610218578063a217fddf1461023f578063c79c5bec1461024757600080fd5b806336568abe116100d357806336568abe146101885780634f558e791461019b5780635abdb98b146101ae57806391d14854146101c157600080fd5b806301ffc9a7146101055780630f560cd71461012d578063248a9ca3146101425780632f2ff15d14610173575b600080fd5b61011861011336600461349d565b6102c7565b60405190151581526020015b60405180910390f35b610135610360565b6040516101249190613922565b610165610150366004613984565b60009081526020819052604090206001015490565b604051908152602001610124565b6101866101813660046139b2565b61168d565b005b6101866101963660046139b2565b6116b7565b6101186101a9366004613984565b611748565b6101866101bc3660046139fb565b611784565b6101186101cf3660046139b2565b6000918252602082815260408084206001600160a01b0393909316845291905290205460ff1690565b61020b610206366004613984565b6117f4565b6040516101249190613a38565b6101657ffb00fa0c30af3f14d2520274f3a36283c33ef91fc8bc1f424b133d150af8e80581565b610165600081565b610186610255366004613a4b565b612b51565b61026d610268366004613984565b612c45565b6040516101249190613a92565b6101866102883660046139b2565b612d4e565b61026d61029b366004613984565b612d73565b6101657fedcc084d3dcd65a1f7f23c65c46722faca6953d28e43150a467cf43e5c30923881565b60007fffffffff0000000000000000000000000000000000000000000000000000000082167f7965db0b00000000000000000000000000000000000000000000000000000000148061035a57507f01ffc9a7000000000000000000000000000000000000000000000000000000007fffffffff000000000000000000000000000000000000000000000000000000008316145b92915050565b60606001805480602002602001604051908101604052809291908181526020016000905b828210156116845783829060005260206000209060260201604051806101c00160405290816000820180546103b890613aa5565b80601f01602080910402602001604051908101604052809291908181526020018280546103e490613aa5565b80156104315780601f1061040657610100808354040283529160200191610431565b820191906000526020600020905b81548152906001019060200180831161041457829003601f168201915b50505091835250506001820154602082015260028201546001600160a01b031660408201526003820154606082015260048201546080820152600582015460a082015260068201805460c09092019161048990613aa5565b80601f01602080910402602001604051908101604052809291908181526020018280546104b590613aa5565b80156105025780601f106104d757610100808354040283529160200191610502565b820191906000526020600020905b8154815290600101906020018083116104e557829003601f168201915b5050505050815260200160078201604051806101a001604052908160008201805461052c90613aa5565b80601f016020809104026020016040519081016040528092919081815260200182805461055890613aa5565b80156105a55780601f1061057a576101008083540402835291602001916105a5565b820191906000526020600020905b81548152906001019060200180831161058857829003601f168201915b505050505081526020016001820180546105be90613aa5565b80601f01602080910402602001604051908101604052809291908181526020018280546105ea90613aa5565b80156106375780601f1061060c57610100808354040283529160200191610637565b820191906000526020600020905b81548152906001019060200180831161061a57829003601f168201915b5050505050815260200160028201805461065090613aa5565b80601f016020809104026020016040519081016040528092919081815260200182805461067c90613aa5565b80156106c95780601f1061069e576101008083540402835291602001916106c9565b820191906000526020600020905b8154815290600101906020018083116106ac57829003601f168201915b505050505081526020016003820180546106e290613aa5565b80601f016020809104026020016040519081016040528092919081815260200182805461070e90613aa5565b801561075b5780601f106107305761010080835404028352916020019161075b565b820191906000526020600020905b81548152906001019060200180831161073e57829003601f168201915b5050505050815260200160048201805461077490613aa5565b80601f01602080910402602001604051908101604052809291908181526020018280546107a090613aa5565b80156107ed5780601f106107c2576101008083540402835291602001916107ed565b820191906000526020600020905b8154815290600101906020018083116107d057829003601f168201915b5050505050815260200160058201805461080690613aa5565b80601f016020809104026020016040519081016040528092919081815260200182805461083290613aa5565b801561087f5780601f106108545761010080835404028352916020019161087f565b820191906000526020600020905b81548152906001019060200180831161086257829003601f168201915b5050505050815260200160068201805461089890613aa5565b80601f01602080910402602001604051908101604052809291908181526020018280546108c490613aa5565b80156109115780601f106108e657610100808354040283529160200191610911565b820191906000526020600020905b8154815290600101906020018083116108f457829003601f168201915b5050505050815260200160078201805461092a90613aa5565b80601f016020809104026020016040519081016040528092919081815260200182805461095690613aa5565b80156109a35780601f10610978576101008083540402835291602001916109a3565b820191906000526020600020905b81548152906001019060200180831161098657829003601f168201915b505050505081526020016008820180546109bc90613aa5565b80601f01602080910402602001604051908101604052809291908181526020018280546109e890613aa5565b8015610a355780601f10610a0a57610100808354040283529160200191610a35565b820191906000526020600020905b815481529060010190602001808311610a1857829003601f168201915b50505050508152602001600982018054610a4e90613aa5565b80601f0160208091040260200160405190810160405280929190818152602001828054610a7a90613aa5565b8015610ac75780601f10610a9c57610100808354040283529160200191610ac7565b820191906000526020600020905b815481529060010190602001808311610aaa57829003601f168201915b50505050508152602001600a82018054610ae090613aa5565b80601f0160208091040260200160405190810160405280929190818152602001828054610b0c90613aa5565b8015610b595780601f10610b2e57610100808354040283529160200191610b59565b820191906000526020600020905b815481529060010190602001808311610b3c57829003601f168201915b50505050508152602001600b82018054610b7290613aa5565b80601f0160208091040260200160405190810160405280929190818152602001828054610b9e90613aa5565b8015610beb5780601f10610bc057610100808354040283529160200191610beb565b820191906000526020600020905b815481529060010190602001808311610bce57829003601f168201915b50505050508152602001600c82018054610c0490613aa5565b80601f0160208091040260200160405190810160405280929190818152602001828054610c3090613aa5565b8015610c7d5780601f10610c5257610100808354040283529160200191610c7d565b820191906000526020600020905b815481529060010190602001808311610c6057829003601f168201915b5050505050815250508152602001601482018054610c9a90613aa5565b80601f0160208091040260200160405190810160405280929190818152602001828054610cc690613aa5565b8015610d135780601f10610ce857610100808354040283529160200191610d13565b820191906000526020600020905b815481529060010190602001808311610cf657829003601f168201915b50505050508152602001601582018054610d2c90613aa5565b80601f0160208091040260200160405190810160405280929190818152602001828054610d5890613aa5565b8015610da55780601f10610d7a57610100808354040283529160200191610da5565b820191906000526020600020905b815481529060010190602001808311610d8857829003601f168201915b50505050508152602001601682018054610dbe90613aa5565b80601f0160208091040260200160405190810160405280929190818152602001828054610dea90613aa5565b8015610e375780601f10610e0c57610100808354040283529160200191610e37565b820191906000526020600020905b815481529060010190602001808311610e1a57829003601f168201915b5050509183525050601782015460ff8082161515602084015261010090910416151560408083019190915280516101c0810190915260188301805460609093019282908290610e8590613aa5565b80601f0160208091040260200160405190810160405280929190818152602001828054610eb190613aa5565b8015610efe5780601f10610ed357610100808354040283529160200191610efe565b820191906000526020600020905b815481529060010190602001808311610ee157829003601f168201915b50505050508152602001600182018054610f1790613aa5565b80601f0160208091040260200160405190810160405280929190818152602001828054610f4390613aa5565b8015610f905780601f10610f6557610100808354040283529160200191610f90565b820191906000526020600020905b815481529060010190602001808311610f7357829003601f168201915b50505050508152602001600282018054610fa990613aa5565b80601f0160208091040260200160405190810160405280929190818152602001828054610fd590613aa5565b80156110225780601f10610ff757610100808354040283529160200191611022565b820191906000526020600020905b81548152906001019060200180831161100557829003601f168201915b5050505050815260200160038201805461103b90613aa5565b80601f016020809104026020016040519081016040528092919081815260200182805461106790613aa5565b80156110b45780601f10611089576101008083540402835291602001916110b4565b820191906000526020600020905b81548152906001019060200180831161109757829003601f168201915b505050505081526020016004820180546110cd90613aa5565b80601f01602080910402602001604051908101604052809291908181526020018280546110f990613aa5565b80156111465780601f1061111b57610100808354040283529160200191611146565b820191906000526020600020905b81548152906001019060200180831161112957829003601f168201915b5050505050815260200160058201805461115f90613aa5565b80601f016020809104026020016040519081016040528092919081815260200182805461118b90613aa5565b80156111d85780601f106111ad576101008083540402835291602001916111d8565b820191906000526020600020905b8154815290600101906020018083116111bb57829003601f168201915b505050505081526020016006820180546111f190613aa5565b80601f016020809104026020016040519081016040528092919081815260200182805461121d90613aa5565b801561126a5780601f1061123f5761010080835404028352916020019161126a565b820191906000526020600020905b81548152906001019060200180831161124d57829003601f168201915b5050505050815260200160078201805461128390613aa5565b80601f01602080910402602001604051908101604052809291908181526020018280546112af90613aa5565b80156112fc5780601f106112d1576101008083540402835291602001916112fc565b820191906000526020600020905b8154815290600101906020018083116112df57829003601f168201915b5050505050815260200160088201805461131590613aa5565b80601f016020809104026020016040519081016040528092919081815260200182805461134190613aa5565b801561138e5780601f106113635761010080835404028352916020019161138e565b820191906000526020600020905b81548152906001019060200180831161137157829003601f168201915b505050505081526020016009820180546113a790613aa5565b80601f01602080910402602001604051908101604052809291908181526020018280546113d390613aa5565b80156114205780601f106113f557610100808354040283529160200191611420565b820191906000526020600020905b81548152906001019060200180831161140357829003601f168201915b50505050508152602001600a8201805461143990613aa5565b80601f016020809104026020016040519081016040528092919081815260200182805461146590613aa5565b80156114b25780601f10611487576101008083540402835291602001916114b2565b820191906000526020600020905b81548152906001019060200180831161149557829003601f168201915b50505050508152602001600b820180546114cb90613aa5565b80601f01602080910402602001604051908101604052809291908181526020018280546114f790613aa5565b80156115445780601f1061151957610100808354040283529160200191611544565b820191906000526020600020905b81548152906001019060200180831161152757829003601f168201915b50505050508152602001600c8201805461155d90613aa5565b80601f016020809104026020016040519081016040528092919081815260200182805461158990613aa5565b80156115d65780601f106115ab576101008083540402835291602001916115d6565b820191906000526020600020905b8154815290600101906020018083116115b957829003601f168201915b50505050508152602001600d820180546115ef90613aa5565b80601f016020809104026020016040519081016040528092919081815260200182805461161b90613aa5565b80156116685780601f1061163d57610100808354040283529160200191611668565b820191906000526020600020905b81548152906001019060200180831161164b57829003601f168201915b5050505050815250508152505081526020019060010190610384565b50505050905090565b6000828152602081905260409020600101546116a881612e1d565b6116b28383612e2a565b505050565b6001600160a01b038116331461173a5760405162461bcd60e51b815260206004820152602f60248201527f416363657373436f6e74726f6c3a2063616e206f6e6c792072656e6f756e636560448201527f20726f6c657320666f722073656c66000000000000000000000000000000000060648201526084015b60405180910390fd5b6117448282612ec8565b5050565b6000806001838154811061175e5761175e613ad9565b9060005260206000209060260201600001805461177a90613aa5565b9050119050919050565b7fedcc084d3dcd65a1f7f23c65c46722faca6953d28e43150a467cf43e5c3092386117ae81612e1d565b60018054808201825560009190915282906026027fb10e2d527612073b26eecdfd717e6a320cf44b4afac2b0732d9fcbe2b7fa0cf6016117ee8282613fc3565b50505050565b6117fc613349565b61180582611748565b6118515760405162461bcd60e51b815260206004820152601960248201527f636f6c6c656374696f6e20646f6573206e6f74206578697374000000000000006044820152606401611731565b6001828154811061186457611864613ad9565b9060005260206000209060260201604051806101c001604052908160008201805461188e90613aa5565b80601f01602080910402602001604051908101604052809291908181526020018280546118ba90613aa5565b80156119075780601f106118dc57610100808354040283529160200191611907565b820191906000526020600020905b8154815290600101906020018083116118ea57829003601f168201915b50505091835250506001820154602082015260028201546001600160a01b031660408201526003820154606082015260048201546080820152600582015460a082015260068201805460c09092019161195f90613aa5565b80601f016020809104026020016040519081016040528092919081815260200182805461198b90613aa5565b80156119d85780601f106119ad576101008083540402835291602001916119d8565b820191906000526020600020905b8154815290600101906020018083116119bb57829003601f168201915b5050505050815260200160078201604051806101a0016040529081600082018054611a0290613aa5565b80601f0160208091040260200160405190810160405280929190818152602001828054611a2e90613aa5565b8015611a7b5780601f10611a5057610100808354040283529160200191611a7b565b820191906000526020600020905b815481529060010190602001808311611a5e57829003601f168201915b50505050508152602001600182018054611a9490613aa5565b80601f0160208091040260200160405190810160405280929190818152602001828054611ac090613aa5565b8015611b0d5780601f10611ae257610100808354040283529160200191611b0d565b820191906000526020600020905b815481529060010190602001808311611af057829003601f168201915b50505050508152602001600282018054611b2690613aa5565b80601f0160208091040260200160405190810160405280929190818152602001828054611b5290613aa5565b8015611b9f5780601f10611b7457610100808354040283529160200191611b9f565b820191906000526020600020905b815481529060010190602001808311611b8257829003601f168201915b50505050508152602001600382018054611bb890613aa5565b80601f0160208091040260200160405190810160405280929190818152602001828054611be490613aa5565b8015611c315780601f10611c0657610100808354040283529160200191611c31565b820191906000526020600020905b815481529060010190602001808311611c1457829003601f168201915b50505050508152602001600482018054611c4a90613aa5565b80601f0160208091040260200160405190810160405280929190818152602001828054611c7690613aa5565b8015611cc35780601f10611c9857610100808354040283529160200191611cc3565b820191906000526020600020905b815481529060010190602001808311611ca657829003601f168201915b50505050508152602001600582018054611cdc90613aa5565b80601f0160208091040260200160405190810160405280929190818152602001828054611d0890613aa5565b8015611d555780601f10611d2a57610100808354040283529160200191611d55565b820191906000526020600020905b815481529060010190602001808311611d3857829003601f168201915b50505050508152602001600682018054611d6e90613aa5565b80601f0160208091040260200160405190810160405280929190818152602001828054611d9a90613aa5565b8015611de75780601f10611dbc57610100808354040283529160200191611de7565b820191906000526020600020905b815481529060010190602001808311611dca57829003601f168201915b50505050508152602001600782018054611e0090613aa5565b80601f0160208091040260200160405190810160405280929190818152602001828054611e2c90613aa5565b8015611e795780601f10611e4e57610100808354040283529160200191611e79565b820191906000526020600020905b815481529060010190602001808311611e5c57829003601f168201915b50505050508152602001600882018054611e9290613aa5565b80601f0160208091040260200160405190810160405280929190818152602001828054611ebe90613aa5565b8015611f0b5780601f10611ee057610100808354040283529160200191611f0b565b820191906000526020600020905b815481529060010190602001808311611eee57829003601f168201915b50505050508152602001600982018054611f2490613aa5565b80601f0160208091040260200160405190810160405280929190818152602001828054611f5090613aa5565b8015611f9d5780601f10611f7257610100808354040283529160200191611f9d565b820191906000526020600020905b815481529060010190602001808311611f8057829003601f168201915b50505050508152602001600a82018054611fb690613aa5565b80601f0160208091040260200160405190810160405280929190818152602001828054611fe290613aa5565b801561202f5780601f106120045761010080835404028352916020019161202f565b820191906000526020600020905b81548152906001019060200180831161201257829003601f168201915b50505050508152602001600b8201805461204890613aa5565b80601f016020809104026020016040519081016040528092919081815260200182805461207490613aa5565b80156120c15780601f10612096576101008083540402835291602001916120c1565b820191906000526020600020905b8154815290600101906020018083116120a457829003601f168201915b50505050508152602001600c820180546120da90613aa5565b80601f016020809104026020016040519081016040528092919081815260200182805461210690613aa5565b80156121535780601f1061212857610100808354040283529160200191612153565b820191906000526020600020905b81548152906001019060200180831161213657829003601f168201915b505050505081525050815260200160148201805461217090613aa5565b80601f016020809104026020016040519081016040528092919081815260200182805461219c90613aa5565b80156121e95780601f106121be576101008083540402835291602001916121e9565b820191906000526020600020905b8154815290600101906020018083116121cc57829003601f168201915b5050505050815260200160158201805461220290613aa5565b80601f016020809104026020016040519081016040528092919081815260200182805461222e90613aa5565b801561227b5780601f106122505761010080835404028352916020019161227b565b820191906000526020600020905b81548152906001019060200180831161225e57829003601f168201915b5050505050815260200160168201805461229490613aa5565b80601f01602080910402602001604051908101604052809291908181526020018280546122c090613aa5565b801561230d5780601f106122e25761010080835404028352916020019161230d565b820191906000526020600020905b8154815290600101906020018083116122f057829003601f168201915b5050509183525050601782015460ff8082161515602084015261010090910416151560408083019190915280516101c081019091526018830180546060909301928290829061235b90613aa5565b80601f016020809104026020016040519081016040528092919081815260200182805461238790613aa5565b80156123d45780601f106123a9576101008083540402835291602001916123d4565b820191906000526020600020905b8154815290600101906020018083116123b757829003601f168201915b505050505081526020016001820180546123ed90613aa5565b80601f016020809104026020016040519081016040528092919081815260200182805461241990613aa5565b80156124665780601f1061243b57610100808354040283529160200191612466565b820191906000526020600020905b81548152906001019060200180831161244957829003601f168201915b5050505050815260200160028201805461247f90613aa5565b80601f01602080910402602001604051908101604052809291908181526020018280546124ab90613aa5565b80156124f85780601f106124cd576101008083540402835291602001916124f8565b820191906000526020600020905b8154815290600101906020018083116124db57829003601f168201915b5050505050815260200160038201805461251190613aa5565b80601f016020809104026020016040519081016040528092919081815260200182805461253d90613aa5565b801561258a5780601f1061255f5761010080835404028352916020019161258a565b820191906000526020600020905b81548152906001019060200180831161256d57829003601f168201915b505050505081526020016004820180546125a390613aa5565b80601f01602080910402602001604051908101604052809291908181526020018280546125cf90613aa5565b801561261c5780601f106125f15761010080835404028352916020019161261c565b820191906000526020600020905b8154815290600101906020018083116125ff57829003601f168201915b5050505050815260200160058201805461263590613aa5565b80601f016020809104026020016040519081016040528092919081815260200182805461266190613aa5565b80156126ae5780601f10612683576101008083540402835291602001916126ae565b820191906000526020600020905b81548152906001019060200180831161269157829003601f168201915b505050505081526020016006820180546126c790613aa5565b80601f01602080910402602001604051908101604052809291908181526020018280546126f390613aa5565b80156127405780601f1061271557610100808354040283529160200191612740565b820191906000526020600020905b81548152906001019060200180831161272357829003601f168201915b5050505050815260200160078201805461275990613aa5565b80601f016020809104026020016040519081016040528092919081815260200182805461278590613aa5565b80156127d25780601f106127a7576101008083540402835291602001916127d2565b820191906000526020600020905b8154815290600101906020018083116127b557829003601f168201915b505050505081526020016008820180546127eb90613aa5565b80601f016020809104026020016040519081016040528092919081815260200182805461281790613aa5565b80156128645780601f1061283957610100808354040283529160200191612864565b820191906000526020600020905b81548152906001019060200180831161284757829003601f168201915b5050505050815260200160098201805461287d90613aa5565b80601f01602080910402602001604051908101604052809291908181526020018280546128a990613aa5565b80156128f65780601f106128cb576101008083540402835291602001916128f6565b820191906000526020600020905b8154815290600101906020018083116128d957829003601f168201915b50505050508152602001600a8201805461290f90613aa5565b80601f016020809104026020016040519081016040528092919081815260200182805461293b90613aa5565b80156129885780601f1061295d57610100808354040283529160200191612988565b820191906000526020600020905b81548152906001019060200180831161296b57829003601f168201915b50505050508152602001600b820180546129a190613aa5565b80601f01602080910402602001604051908101604052809291908181526020018280546129cd90613aa5565b8015612a1a5780601f106129ef57610100808354040283529160200191612a1a565b820191906000526020600020905b8154815290600101906020018083116129fd57829003601f168201915b50505050508152602001600c82018054612a3390613aa5565b80601f0160208091040260200160405190810160405280929190818152602001828054612a5f90613aa5565b8015612aac5780601f10612a8157610100808354040283529160200191612aac565b820191906000526020600020905b815481529060010190602001808311612a8f57829003601f168201915b50505050508152602001600d82018054612ac590613aa5565b80601f0160208091040260200160405190810160405280929190818152602001828054612af190613aa5565b8015612b3e5780601f10612b1357610100808354040283529160200191612b3e565b820191906000526020600020905b815481529060010190602001808311612b2157829003601f168201915b5050509190925250505090525092915050565b7ffb00fa0c30af3f14d2520274f3a36283c33ef91fc8bc1f424b133d150af8e805612b7b81612e1d565b612b8483611748565b612bd05760405162461bcd60e51b815260206004820152601960248201527f636f6c6c656374696f6e20646f6573206e6f74206578697374000000000000006044820152606401611731565b8160018481548110612be457612be4613ad9565b90600052602060002090602602016018018181612c019190613e2f565b9050506001808481548110612c1857612c18613ad9565b906000526020600020906026020160170160016101000a81548160ff021916908315150217905550505050565b6060600060018381548110612c5c57612c5c613ad9565b906000526020600020906026020190506000612cf273__$e1ac43ad3587e2148f636bf5c0fabc3624$__636ad432ab846040518263ffffffff1660e01b8152600401612ca89190614436565b600060405180830381865af4158015612cc5573d6000803e3d6000fd5b505050506040513d6000823e601f3d908101601f19168201604052612ced919081019061455e565b612f47565b9050612d26826000018360150183604051602001612d129392919061467e565b604051602081830303815290604052612f47565b604051602001612d36919061479b565b60405160208183030381529060405292505050919050565b600082815260208190526040902060010154612d6981612e1d565b6116b28383612ec8565b6060600060018381548110612d8a57612d8a613ad9565b9060005260206000209060260201905073__$e1ac43ad3587e2148f636bf5c0fabc3624$__636ad432ab826040518263ffffffff1660e01b8152600401612dd19190614436565b600060405180830381865af4158015612dee573d6000803e3d6000fd5b505050506040513d6000823e601f3d908101601f19168201604052612e16919081019061455e565b9392505050565b612e2781336130e3565b50565b6000828152602081815260408083206001600160a01b038516845290915290205460ff16611744576000828152602081815260408083206001600160a01b03851684529091529020805460ff19166001179055612e843390565b6001600160a01b0316816001600160a01b0316837f2f8788117e7eff1d82e926ec794901d17c78024a50270940304540a733656f0d60405160405180910390a45050565b6000828152602081815260408083206001600160a01b038516845290915290205460ff1615611744576000828152602081815260408083206001600160a01b0385168085529252808320805460ff1916905551339285917ff6391f5c32d9c69d2a47ea670b442974b53935d1edc7fd64eb21e047a839171b9190a45050565b60608151600003612f6657505060408051602081019091526000815290565b60006040518060600160405280604081526020016148db6040913990506000600384516002612f9591906147f6565b612f9f9190614809565b612faa90600461482b565b90506000612fb98260206147f6565b67ffffffffffffffff811115612fd157612fd1613b3d565b6040519080825280601f01601f191660200182016040528015612ffb576020820181803683370190505b509050818152600183018586518101602084015b81831015613067576003830192508251603f8160121c168501518253600182019150603f81600c1c168501518253600182019150603f8160061c168501518253600182019150603f811685015182535060010161300f565b60038951066001811461308157600281146130ad576130d5565b7f3d3d0000000000000000000000000000000000000000000000000000000000006001198301526130d5565b7f3d000000000000000000000000000000000000000000000000000000000000006000198301525b509398975050505050505050565b6000828152602081815260408083206001600160a01b038516845290915290205460ff166117445761311481613156565b61311f836020613168565b604051602001613130929190614842565b60408051601f198184030181529082905262461bcd60e51b825261173191600401613a92565b606061035a6001600160a01b03831660145b6060600061317783600261482b565b6131829060026147f6565b67ffffffffffffffff81111561319a5761319a613b3d565b6040519080825280601f01601f1916602001820160405280156131c4576020820181803683370190505b5090507f3000000000000000000000000000000000000000000000000000000000000000816000815181106131fb576131fb613ad9565b60200101906001600160f81b031916908160001a9053507f78000000000000000000000000000000000000000000000000000000000000008160018151811061324657613246613ad9565b60200101906001600160f81b031916908160001a905350600061326a84600261482b565b6132759060016147f6565b90505b60018111156132fa577f303132333435363738396162636465660000000000000000000000000000000085600f16601081106132b6576132b6613ad9565b1a60f81b8282815181106132cc576132cc613ad9565b60200101906001600160f81b031916908160001a90535060049490941c936132f3816148c3565b9050613278565b508315612e165760405162461bcd60e51b815260206004820181905260248201527f537472696e67733a20686578206c656e67746820696e73756666696369656e746044820152606401611731565b604051806101c00160405280606081526020016000815260200160006001600160a01b03168152602001600081526020016000815260200160008152602001606081526020016133fa604051806101a00160405280606081526020016060815260200160608152602001606081526020016060815260200160608152602001606081526020016060815260200160608152602001606081526020016060815260200160608152602001606081525090565b8152602001606081526020016060815260200160608152602001600015158152602001600015158152602001613498604051806101c0016040528060608152602001606081526020016060815260200160608152602001606081526020016060815260200160608152602001606081526020016060815260200160608152602001606081526020016060815260200160608152602001606081525090565b905290565b6000602082840312156134af57600080fd5b81357fffffffff0000000000000000000000000000000000000000000000000000000081168114612e1657600080fd5b60005b838110156134fa5781810151838201526020016134e2565b50506000910152565b6000815180845261351b8160208601602086016134df565b601f01601f19169290920160200192915050565b60006101a0825181855261354582860182613503565b9150506020830151848203602086015261355f8282613503565b915050604083015184820360408601526135798282613503565b915050606083015184820360608601526135938282613503565b915050608083015184820360808601526135ad8282613503565b91505060a083015184820360a08601526135c78282613503565b91505060c083015184820360c08601526135e18282613503565b91505060e083015184820360e08601526135fb8282613503565b91505061010080840151858303828701526136168382613503565b9250505061012080840151858303828701526136328382613503565b92505050610140808401518583038287015261364e8382613503565b92505050610160808401518583038287015261366a8382613503565b9250505061018080840151858303828701526136868382613503565b9695505050505050565b60006101c082518185526136a682860182613503565b915050602083015184820360208601526136c08282613503565b915050604083015184820360408601526136da8282613503565b915050606083015184820360608601526136f48282613503565b9150506080830151848203608086015261370e8282613503565b91505060a083015184820360a08601526137288282613503565b91505060c083015184820360c08601526137428282613503565b91505060e083015184820360e086015261375c8282613503565b91505061010080840151858303828701526137778382613503565b9250505061012080840151858303828701526137938382613503565b9250505061014080840151858303828701526137af8382613503565b9250505061016080840151858303828701526137cb8382613503565b9250505061018080840151858303828701526137e78382613503565b925050506101a080840151858303828701526136868382613503565b60006101c0825181855261381982860182613503565b91505060208301516020850152604083015161384060408601826001600160a01b03169052565b50606083015160608501526080830151608085015260a083015160a085015260c083015184820360c08601526138768282613503565b91505060e083015184820360e0860152613890828261352f565b91505061010080840151858303828701526138ab8382613503565b9250505061012080840151858303828701526138c78382613503565b9250505061014080840151858303828701526138e38382613503565b92505050610160808401516138fb8287018215159052565b5050610180838101511515908501526101a080840151858303828701526136868382613690565b6000602080830181845280855180835260408601915060408160051b870101925083870160005b8281101561397757603f19888603018452613965858351613803565b94509285019290850190600101613949565b5092979650505050505050565b60006020828403121561399657600080fd5b5035919050565b6001600160a01b0381168114612e2757600080fd5b600080604083850312156139c557600080fd5b8235915060208301356139d78161399d565b809150509250929050565b60006101c082840312156139f557600080fd5b50919050565b600060208284031215613a0d57600080fd5b813567ffffffffffffffff811115613a2457600080fd5b613a30848285016139e2565b949350505050565b602081526000612e166020830184613803565b60008060408385031215613a5e57600080fd5b82359150602083013567ffffffffffffffff811115613a7c57600080fd5b613a88858286016139e2565b9150509250929050565b602081526000612e166020830184613503565b600181811c90821680613ab957607f821691505b6020821081036139f557634e487b7160e01b600052602260045260246000fd5b634e487b7160e01b600052603260045260246000fd5b6000808335601e19843603018112613b0657600080fd5b83018035915067ffffffffffffffff821115613b2157600080fd5b602001915036819003821315613b3657600080fd5b9250929050565b634e487b7160e01b600052604160045260246000fd5b601f8211156116b257600081815260208120601f850160051c81016020861015613b7a5750805b601f850160051c820191505b81811015613b9957828155600101613b86565b505050505050565b67ffffffffffffffff831115613bb957613bb9613b3d565b613bcd83613bc78354613aa5565b83613b53565b6000601f841160018114613c015760008515613be95750838201355b600019600387901b1c1916600186901b178355613c5b565b600083815260209020601f19861690835b82811015613c325786850135825560209485019460019092019101613c12565b5086821015613c4f5760001960f88860031b161c19848701351681555b505060018560011b0183555b5050505050565b6000813561035a8161399d565b6000823561019e19833603018112613c8657600080fd5b9190910192915050565b613c9a8283613aef565b613ca5818385613ba1565b5050613cb46020830183613aef565b613cc2818360018601613ba1565b5050613cd16040830183613aef565b613cdf818360028601613ba1565b5050613cee6060830183613aef565b613cfc818360038601613ba1565b5050613d0b6080830183613aef565b613d19818360048601613ba1565b5050613d2860a0830183613aef565b613d36818360058601613ba1565b5050613d4560c0830183613aef565b613d53818360068601613ba1565b5050613d6260e0830183613aef565b613d70818360078601613ba1565b5050613d80610100830183613aef565b613d8e818360088601613ba1565b5050613d9e610120830183613aef565b613dac818360098601613ba1565b5050613dbc610140830183613aef565b613dca8183600a8601613ba1565b5050613dda610160830183613aef565b613de88183600b8601613ba1565b5050613df8610180830183613aef565b6117ee8183600c8601613ba1565b60008135801515811461035a57600080fd5b600082356101be19833603018112613c8657600080fd5b613e398283613aef565b613e44818385613ba1565b5050613e536020830183613aef565b613e61818360018601613ba1565b5050613e706040830183613aef565b613e7e818360028601613ba1565b5050613e8d6060830183613aef565b613e9b818360038601613ba1565b5050613eaa6080830183613aef565b613eb8818360048601613ba1565b5050613ec760a0830183613aef565b613ed5818360058601613ba1565b5050613ee460c0830183613aef565b613ef2818360068601613ba1565b5050613f0160e0830183613aef565b613f0f818360078601613ba1565b5050613f1f610100830183613aef565b613f2d818360088601613ba1565b5050613f3d610120830183613aef565b613f4b818360098601613ba1565b5050613f5b610140830183613aef565b613f698183600a8601613ba1565b5050613f79610160830183613aef565b613f878183600b8601613ba1565b5050613f97610180830183613aef565b613fa58183600c8601613ba1565b5050613fb56101a0830183613aef565b6117ee8183600d8601613ba1565b613fcd8283613aef565b613fd8818385613ba1565b50506020820135600182015561402c613ff360408401613c62565b600283016001600160a01b0382167fffffffffffffffffffffffff00000000000000000000000000000000000000008254161781555050565b606082013560038201556080820135600482015560a0820135600582015561405760c0830183613aef565b614065818360068601613ba1565b505061408061407760e0840184613c6f565b60078301613c90565b61408e610100830183613aef565b61409c818360148601613ba1565b50506140ac610120830183613aef565b6140ba818360158601613ba1565b50506140ca610140830183613aef565b6140d8818360168601613ba1565b5050601781016141026140ee6101608501613e06565b825490151560ff1660ff1991909116178255565b61412c6141126101808501613e06565b82805461ff00191691151560081b61ff0016919091179055565b5061174461413e6101a0840184613e18565b60188301613e2f565b6000815461415481613aa5565b808552602060018381168015614171576001811461418b576141b9565b60ff1985168884015283151560051b8801830195506141b9565b866000528260002060005b858110156141b15781548a8201860152908301908401614196565b890184019650505b505050505092915050565b60006101a08084526141d881850184614147565b905083810360208501526141ef8160018501614147565b905083810360408501526142068160028501614147565b9050838103606085015261421d8160038501614147565b905083810360808501526142348160048501614147565b905083810360a085015261424b8160058501614147565b905083810360c08501526142628160068501614147565b905083810360e08501526142798160078501614147565b90508381036101008501526142918160088501614147565b90508381036101208501526142a98160098501614147565b90508381036101408501526142c181600a8501614147565b90508381036101608501526142d981600b8501614147565b9050838103610180850152613a3081600c8501614147565b60006101c080845261430581850184614147565b9050838103602085015261431c8160018501614147565b905083810360408501526143338160028501614147565b9050838103606085015261434a8160038501614147565b905083810360808501526143618160048501614147565b905083810360a08501526143788160058501614147565b905083810360c085015261438f8160068501614147565b905083810360e08501526143a68160078501614147565b90508381036101008501526143be8160088501614147565b90508381036101208501526143d68160098501614147565b90508381036101408501526143ee81600a8501614147565b905083810361016085015261440681600b8501614147565b905083810361018085015261441e81600c8501614147565b90508381036101a0850152613a3081600d8501614147565b6020815260006101c08060208401526144536101e0840185614147565b6001850154604085015260028501546001600160a01b0316606085015260038501546080850152600485015460a0850152600585015460c0850152838103601f1990810160e08601526144a98260068801614147565b915080858303016101008601526144c382600788016141c4565b915080858303016101208601526144dd8260148801614147565b915080858303016101408601526144f78260158801614147565b915080858303016101608601526145118260168801614147565b9150601786015461452a610180870160ff831615159052565b61453f6101a0870160ff8360081c1615159052565b50848203018285015261455581601887016142f1565b95945050505050565b60006020828403121561457057600080fd5b815167ffffffffffffffff8082111561458857600080fd5b818401915084601f83011261459c57600080fd5b8151818111156145ae576145ae613b3d565b604051601f8201601f19908116603f011681019083821181831017156145d6576145d6613b3d565b816040528281528760208487010111156145ef57600080fd5b6146008360208301602088016134df565b979650505050505050565b6000815461461881613aa5565b60018281168015614630576001811461464557614674565b60ff1984168752821515830287019450614674565b8560005260208060002060005b8581101561466b5781548a820152908401908201614652565b50505082870194505b5050505092915050565b7f7b226e616d65223a220000000000000000000000000000000000000000000000815260006146b0600983018661460b565b7f202d20506f636b7920644e4654205469636b6574222c2022646573637269707481527f696f6e223a2200000000000000000000000000000000000000000000000000006020820152614706602682018661460b565b90507f222c2022616e696d6174696f6e5f75726c223a202268747470733a2f2f706f6381527f6b792e64656e6f2e6465762f72656e6465723f7376673d000000000000000000602082015283516147648160378401602088016134df565b7f227d0000000000000000000000000000000000000000000000000000000000006037929091019182015260390195945050505050565b7f646174613a6170706c69636174696f6e2f6a736f6e3b6261736536342c0000008152600082516147d381601d8501602087016134df565b91909101601d0192915050565b634e487b7160e01b600052601160045260246000fd5b8082018082111561035a5761035a6147e0565b60008261482657634e487b7160e01b600052601260045260246000fd5b500490565b808202811582820484141761035a5761035a6147e0565b7f416363657373436f6e74726f6c3a206163636f756e742000000000000000000081526000835161487a8160178501602088016134df565b7f206973206d697373696e6720726f6c652000000000000000000000000000000060179184019182015283516148b78160288401602088016134df565b01602801949350505050565b6000816148d2576148d26147e0565b50600019019056fe4142434445464748494a4b4c4d4e4f505152535455565758595a6162636465666768696a6b6c6d6e6f707172737475767778797a303132333435363738392b2fa2646970667358221220fb79bd39543dd1c4fb4c6d01bba003eb0c84255ae483e3123234c3235b66d67664736f6c63430008110033",
  "libraries": {
    "TicketSVGRenderer": "0x1Ffa7ECdB47186B7215C98b2CAe5916F969C0C15"
  },
  "devdoc": {
    "details": "A module manages the collection data (i.e. metadata shared across tickets for an event), and renders a OpenSea-compliant ERC721 metadata for each tokens. A metadata can be updated by Chainlink oracle (API Consumer), for example, for updating the event result. The frontend app should use it for serving available drops/collections.",
    "kind": "dev",
    "methods": {
      "constructTokenURIOf(uint256)": {
        "details": "Generates a OpenSea-compliant ERC721 metadata for a token.",
        "params": {
          "collectionId": "the collection ID"
        }
      },
      "exists(uint256)": {
        "details": "returns whether the collectionId exists. "
      },
      "get(uint256)": {
        "details": "returns the collection data for given ID. "
      },
      "getRoleAdmin(bytes32)": {
        "details": "Returns the admin role that controls `role`. See {grantRole} and {revokeRole}. To change a role's admin, use {_setRoleAdmin}."
      },
      "grantRole(bytes32,address)": {
        "details": "Grants `role` to `account`. If `account` had not been already granted `role`, emits a {RoleGranted} event. Requirements: - the caller must have ``role``'s admin role. May emit a {RoleGranted} event."
      },
      "hasRole(bytes32,address)": {
        "details": "Returns `true` if `account` has been granted `role`."
      },
      "list()": {
        "details": "The entire collection data. The frontend app should use this method for listing collections in the main page."
      },
      "register((string,uint256,address,uint256,uint256,uint256,string,(string,string,string,string,string,string,string,string,string,string,string,string,string),string,string,string,bool,bool,(string,string,string,string,string,string,string,string,string,string,string,string,string,string)))": {
        "details": "Registers a new collection. Should have {@link REGISTRAR_ROLE}.",
        "params": {
          "collection": "The collection data."
        }
      },
      "renounceRole(bytes32,address)": {
        "details": "Revokes `role` from the calling account. Roles are often managed via {grantRole} and {revokeRole}: this function's purpose is to provide a mechanism for accounts to lose their privileges if they are compromised (such as when a trusted device is misplaced). If the calling account had been revoked `role`, emits a {RoleRevoked} event. Requirements: - the caller must be `account`. May emit a {RoleRevoked} event."
      },
      "revokeRole(bytes32,address)": {
        "details": "Revokes `role` from `account`. If `account` had been granted `role`, emits a {RoleRevoked} event. Requirements: - the caller must have ``role``'s admin role. May emit a {RoleRevoked} event."
      },
      "supportsInterface(bytes4)": {
        "details": "See {IERC165-supportsInterface}."
      },
      "updateResult(uint256,(string,string,string,string,string,string,string,string,string,string,string,string,string,string))": {
        "details": "Updates a event result of a collection. Should have {@link RESULT_ORACLE_ROLE} (i.e. Oracle!)",
        "params": {
          "collectionId": "The collection you want to update",
          "result": "The event result"
        }
      }
    },
    "stateVariables": {
      "REGISTRAR_ROLE": {
        "details": "REGISTRAR_ROLE is admin user, who can register a collection. "
      },
      "RESULT_ORACLE_ROLE": {
        "details": "RESULT_ORACLE_ROLE is given to Chainlink Oracle, who can update the `eventResult` of a collection. "
      }
    },
    "version": 1
  },
  "userdoc": {
    "kind": "user",
    "methods": {
      "updateResult(uint256,(string,string,string,string,string,string,string,string,string,string,string,string,string,string))": {
        "notice": "This function is called by Chainlink Oracle."
      }
    },
    "version": 1
  },
  "storageLayout": {
    "storage": [
      {
        "astId": 2398,
        "contract": "contracts/PockyCollections.sol:PockyCollections",
        "label": "_roles",
        "offset": 0,
        "slot": "0",
        "type": "t_mapping(t_bytes32,t_struct(RoleData)2393_storage)"
      },
      {
        "astId": 6312,
        "contract": "contracts/PockyCollections.sol:PockyCollections",
        "label": "_collections",
        "offset": 0,
        "slot": "1",
        "type": "t_array(t_struct(Collection)6247_storage)dyn_storage"
      }
    ],
    "types": {
      "t_address": {
        "encoding": "inplace",
        "label": "address",
        "numberOfBytes": "20"
      },
      "t_array(t_struct(Collection)6247_storage)dyn_storage": {
        "base": "t_struct(Collection)6247_storage",
        "encoding": "dynamic_array",
        "label": "struct PockyCollections.Collection[]",
        "numberOfBytes": "32"
      },
      "t_bool": {
        "encoding": "inplace",
        "label": "bool",
        "numberOfBytes": "1"
      },
      "t_bytes32": {
        "encoding": "inplace",
        "label": "bytes32",
        "numberOfBytes": "32"
      },
      "t_mapping(t_address,t_bool)": {
        "encoding": "mapping",
        "key": "t_address",
        "label": "mapping(address => bool)",
        "numberOfBytes": "32",
        "value": "t_bool"
      },
      "t_mapping(t_bytes32,t_struct(RoleData)2393_storage)": {
        "encoding": "mapping",
        "key": "t_bytes32",
        "label": "mapping(bytes32 => struct AccessControl.RoleData)",
        "numberOfBytes": "32",
        "value": "t_struct(RoleData)2393_storage"
      },
      "t_string_storage": {
        "encoding": "bytes",
        "label": "string",
        "numberOfBytes": "32"
      },
      "t_struct(Collection)6247_storage": {
        "encoding": "inplace",
        "label": "struct PockyCollections.Collection",
        "members": [
          {
            "astId": 6206,
            "contract": "contracts/PockyCollections.sol:PockyCollections",
            "label": "name",
            "offset": 0,
            "slot": "0",
            "type": "t_string_storage"
          },
          {
            "astId": 6209,
            "contract": "contracts/PockyCollections.sol:PockyCollections",
            "label": "priceInETH",
            "offset": 0,
            "slot": "1",
            "type": "t_uint256"
          },
          {
            "astId": 6212,
            "contract": "contracts/PockyCollections.sol:PockyCollections",
            "label": "owner",
            "offset": 0,
            "slot": "2",
            "type": "t_address"
          },
          {
            "astId": 6215,
            "contract": "contracts/PockyCollections.sol:PockyCollections",
            "label": "maxSupply",
            "offset": 0,
            "slot": "3",
            "type": "t_uint256"
          },
          {
            "astId": 6218,
            "contract": "contracts/PockyCollections.sol:PockyCollections",
            "label": "startDate",
            "offset": 0,
            "slot": "4",
            "type": "t_uint256"
          },
          {
            "astId": 6221,
            "contract": "contracts/PockyCollections.sol:PockyCollections",
            "label": "endDate",
            "offset": 0,
            "slot": "5",
            "type": "t_uint256"
          },
          {
            "astId": 6224,
            "contract": "contracts/PockyCollections.sol:PockyCollections",
            "label": "matchDate",
            "offset": 0,
            "slot": "6",
            "type": "t_string_storage"
          },
          {
            "astId": 6227,
            "contract": "contracts/PockyCollections.sol:PockyCollections",
            "label": "ticketSvgMetadata",
            "offset": 0,
            "slot": "7",
            "type": "t_struct(TicketSVGMetadata)6279_storage"
          },
          {
            "astId": 6230,
            "contract": "contracts/PockyCollections.sol:PockyCollections",
            "label": "eventLocation",
            "offset": 0,
            "slot": "20",
            "type": "t_string_storage"
          },
          {
            "astId": 6233,
            "contract": "contracts/PockyCollections.sol:PockyCollections",
            "label": "description",
            "offset": 0,
            "slot": "21",
            "type": "t_string_storage"
          },
          {
            "astId": 6236,
            "contract": "contracts/PockyCollections.sol:PockyCollections",
            "label": "imageUrl",
            "offset": 0,
            "slot": "22",
            "type": "t_string_storage"
          },
          {
            "astId": 6239,
            "contract": "contracts/PockyCollections.sol:PockyCollections",
            "label": "featured",
            "offset": 0,
            "slot": "23",
            "type": "t_bool"
          },
          {
            "astId": 6242,
            "contract": "contracts/PockyCollections.sol:PockyCollections",
            "label": "updated",
            "offset": 1,
            "slot": "23",
            "type": "t_bool"
          },
          {
            "astId": 6246,
            "contract": "contracts/PockyCollections.sol:PockyCollections",
            "label": "eventResult",
            "offset": 0,
            "slot": "24",
            "type": "t_struct(OracleResult)6308_storage"
          }
        ],
        "numberOfBytes": "1216"
      },
      "t_struct(OracleResult)6308_storage": {
        "encoding": "inplace",
        "label": "struct PockyCollections.OracleResult",
        "members": [
          {
            "astId": 6281,
            "contract": "contracts/PockyCollections.sol:PockyCollections",
            "label": "homeScore",
            "offset": 0,
            "slot": "0",
            "type": "t_string_storage"
          },
          {
            "astId": 6283,
            "contract": "contracts/PockyCollections.sol:PockyCollections",
            "label": "homeFGM",
            "offset": 0,
            "slot": "1",
            "type": "t_string_storage"
          },
          {
            "astId": 6285,
            "contract": "contracts/PockyCollections.sol:PockyCollections",
            "label": "homeFGP",
            "offset": 0,
            "slot": "2",
            "type": "t_string_storage"
          },
          {
            "astId": 6287,
            "contract": "contracts/PockyCollections.sol:PockyCollections",
            "label": "homeTPM",
            "offset": 0,
            "slot": "3",
            "type": "t_string_storage"
          },
          {
            "astId": 6289,
            "contract": "contracts/PockyCollections.sol:PockyCollections",
            "label": "homeTPP",
            "offset": 0,
            "slot": "4",
            "type": "t_string_storage"
          },
          {
            "astId": 6291,
            "contract": "contracts/PockyCollections.sol:PockyCollections",
            "label": "homeFTM",
            "offset": 0,
            "slot": "5",
            "type": "t_string_storage"
          },
          {
            "astId": 6293,
            "contract": "contracts/PockyCollections.sol:PockyCollections",
            "label": "homeFTP",
            "offset": 0,
            "slot": "6",
            "type": "t_string_storage"
          },
          {
            "astId": 6295,
            "contract": "contracts/PockyCollections.sol:PockyCollections",
            "label": "awayScore",
            "offset": 0,
            "slot": "7",
            "type": "t_string_storage"
          },
          {
            "astId": 6297,
            "contract": "contracts/PockyCollections.sol:PockyCollections",
            "label": "awayFGM",
            "offset": 0,
            "slot": "8",
            "type": "t_string_storage"
          },
          {
            "astId": 6299,
            "contract": "contracts/PockyCollections.sol:PockyCollections",
            "label": "awayFGP",
            "offset": 0,
            "slot": "9",
            "type": "t_string_storage"
          },
          {
            "astId": 6301,
            "contract": "contracts/PockyCollections.sol:PockyCollections",
            "label": "awayTPM",
            "offset": 0,
            "slot": "10",
            "type": "t_string_storage"
          },
          {
            "astId": 6303,
            "contract": "contracts/PockyCollections.sol:PockyCollections",
            "label": "awayTPP",
            "offset": 0,
            "slot": "11",
            "type": "t_string_storage"
          },
          {
            "astId": 6305,
            "contract": "contracts/PockyCollections.sol:PockyCollections",
            "label": "awayFTM",
            "offset": 0,
            "slot": "12",
            "type": "t_string_storage"
          },
          {
            "astId": 6307,
            "contract": "contracts/PockyCollections.sol:PockyCollections",
            "label": "awayFTP",
            "offset": 0,
            "slot": "13",
            "type": "t_string_storage"
          }
        ],
        "numberOfBytes": "448"
      },
      "t_struct(RoleData)2393_storage": {
        "encoding": "inplace",
        "label": "struct AccessControl.RoleData",
        "members": [
          {
            "astId": 2390,
            "contract": "contracts/PockyCollections.sol:PockyCollections",
            "label": "members",
            "offset": 0,
            "slot": "0",
            "type": "t_mapping(t_address,t_bool)"
          },
          {
            "astId": 2392,
            "contract": "contracts/PockyCollections.sol:PockyCollections",
            "label": "adminRole",
            "offset": 0,
            "slot": "1",
            "type": "t_bytes32"
          }
        ],
        "numberOfBytes": "64"
      },
      "t_struct(TicketSVGMetadata)6279_storage": {
        "encoding": "inplace",
        "label": "struct PockyCollections.TicketSVGMetadata",
        "members": [
          {
            "astId": 6249,
            "contract": "contracts/PockyCollections.sol:PockyCollections",
            "label": "homeTeamName",
            "offset": 0,
            "slot": "0",
            "type": "t_string_storage"
          },
          {
            "astId": 6251,
            "contract": "contracts/PockyCollections.sol:PockyCollections",
            "label": "homeTeamSymbol",
            "offset": 0,
            "slot": "1",
            "type": "t_string_storage"
          },
          {
            "astId": 6253,
            "contract": "contracts/PockyCollections.sol:PockyCollections",
            "label": "homeTeamLogo",
            "offset": 0,
            "slot": "2",
            "type": "t_string_storage"
          },
          {
            "astId": 6255,
            "contract": "contracts/PockyCollections.sol:PockyCollections",
            "label": "homeTeamColor",
            "offset": 0,
            "slot": "3",
            "type": "t_string_storage"
          },
          {
            "astId": 6257,
            "contract": "contracts/PockyCollections.sol:PockyCollections",
            "label": "awayTeamName",
            "offset": 0,
            "slot": "4",
            "type": "t_string_storage"
          },
          {
            "astId": 6259,
            "contract": "contracts/PockyCollections.sol:PockyCollections",
            "label": "awayTeamSymbol",
            "offset": 0,
            "slot": "5",
            "type": "t_string_storage"
          },
          {
            "astId": 6261,
            "contract": "contracts/PockyCollections.sol:PockyCollections",
            "label": "awayTeamLogo",
            "offset": 0,
            "slot": "6",
            "type": "t_string_storage"
          },
          {
            "astId": 6263,
            "contract": "contracts/PockyCollections.sol:PockyCollections",
            "label": "awayTeamColor",
            "offset": 0,
            "slot": "7",
            "type": "t_string_storage"
          },
          {
            "astId": 6266,
            "contract": "contracts/PockyCollections.sol:PockyCollections",
            "label": "qrCodeUrl",
            "offset": 0,
            "slot": "8",
            "type": "t_string_storage"
          },
          {
            "astId": 6269,
            "contract": "contracts/PockyCollections.sol:PockyCollections",
            "label": "dateLine1",
            "offset": 0,
            "slot": "9",
            "type": "t_string_storage"
          },
          {
            "astId": 6272,
            "contract": "contracts/PockyCollections.sol:PockyCollections",
            "label": "dateLine2",
            "offset": 0,
            "slot": "10",
            "type": "t_string_storage"
          },
          {
            "astId": 6275,
            "contract": "contracts/PockyCollections.sol:PockyCollections",
            "label": "locationLine1",
            "offset": 0,
            "slot": "11",
            "type": "t_string_storage"
          },
          {
            "astId": 6278,
            "contract": "contracts/PockyCollections.sol:PockyCollections",
            "label": "locationLine2",
            "offset": 0,
            "slot": "12",
            "type": "t_string_storage"
          }
        ],
        "numberOfBytes": "416"
      },
      "t_uint256": {
        "encoding": "inplace",
        "label": "uint256",
        "numberOfBytes": "32"
      }
    }
  }
}