{
  "address": "0x50f3b9EA220b7C5d9cf815E7846c121db388FCFe",
  "abi": [
    {
      "inputs": [
        {
          "internalType": "contract PockyCollections",
          "name": "_collections",
          "type": "address"
        }
      ],
      "stateMutability": "nonpayable",
      "type": "constructor"
    },
    {
      "anonymous": false,
      "inputs": [
        {
          "indexed": true,
          "internalType": "bytes32",
          "name": "id",
          "type": "bytes32"
        }
      ],
      "name": "ChainlinkCancelled",
      "type": "event"
    },
    {
      "anonymous": false,
      "inputs": [
        {
          "indexed": true,
          "internalType": "bytes32",
          "name": "id",
          "type": "bytes32"
        }
      ],
      "name": "ChainlinkFulfilled",
      "type": "event"
    },
    {
      "anonymous": false,
      "inputs": [
        {
          "indexed": true,
          "internalType": "bytes32",
          "name": "id",
          "type": "bytes32"
        }
      ],
      "name": "ChainlinkRequested",
      "type": "event"
    },
    {
      "anonymous": false,
      "inputs": [
        {
          "indexed": true,
          "internalType": "address",
          "name": "from",
          "type": "address"
        },
        {
          "indexed": true,
          "internalType": "address",
          "name": "to",
          "type": "address"
        }
      ],
      "name": "OwnershipTransferRequested",
      "type": "event"
    },
    {
      "anonymous": false,
      "inputs": [
        {
          "indexed": true,
          "internalType": "address",
          "name": "from",
          "type": "address"
        },
        {
          "indexed": true,
          "internalType": "address",
          "name": "to",
          "type": "address"
        }
      ],
      "name": "OwnershipTransferred",
      "type": "event"
    },
    {
      "inputs": [],
      "name": "acceptOwnership",
      "outputs": [],
      "stateMutability": "nonpayable",
      "type": "function"
    },
    {
      "inputs": [],
      "name": "collections",
      "outputs": [
        {
          "internalType": "contract PockyCollections",
          "name": "",
          "type": "address"
        }
      ],
      "stateMutability": "view",
      "type": "function"
    },
    {
      "inputs": [
        {
          "internalType": "bytes32",
          "name": "_requestId",
          "type": "bytes32"
        },
        {
          "internalType": "string",
          "name": "oracleResultAbiData",
          "type": "string"
        }
      ],
      "name": "fulfill",
      "outputs": [],
      "stateMutability": "nonpayable",
      "type": "function"
    },
    {
      "inputs": [],
      "name": "owner",
      "outputs": [
        {
          "internalType": "address",
          "name": "",
          "type": "address"
        }
      ],
      "stateMutability": "view",
      "type": "function"
    },
    {
      "inputs": [
        {
          "internalType": "uint256",
          "name": "collectionId",
          "type": "uint256"
        }
      ],
      "name": "requestFetchMatchResult",
      "outputs": [
        {
          "internalType": "bytes32",
          "name": "requestId",
          "type": "bytes32"
        }
      ],
      "stateMutability": "nonpayable",
      "type": "function"
    },
    {
      "inputs": [
        {
          "internalType": "bytes32",
          "name": "",
          "type": "bytes32"
        }
      ],
      "name": "requestIdToCollectionId",
      "outputs": [
        {
          "internalType": "uint256",
          "name": "",
          "type": "uint256"
        }
      ],
      "stateMutability": "view",
      "type": "function"
    },
    {
      "inputs": [
        {
          "internalType": "address",
          "name": "to",
          "type": "address"
        }
      ],
      "name": "transferOwnership",
      "outputs": [],
      "stateMutability": "nonpayable",
      "type": "function"
    },
    {
      "inputs": [
        {
          "internalType": "uint256",
          "name": "collectionId",
          "type": "uint256"
        },
        {
          "internalType": "string",
          "name": "oracleResultAbiData",
          "type": "string"
        }
      ],
      "name": "updateEventResult",
      "outputs": [],
      "stateMutability": "nonpayable",
      "type": "function"
    },
    {
      "inputs": [],
      "name": "withdrawLink",
      "outputs": [],
      "stateMutability": "nonpayable",
      "type": "function"
    }
  ],
  "transactionHash": "0x7fe63d57307efd67909043521c690a8d7222e2a1f2e18e660ae7212389566672",
  "args": [
    "0xa9f6E9B62A45216cdC67DB52BaE41269185d931B"
  ],
  "numDeployments": 1,
  "solcInputHash": "cfcb2443b622d3e037be2cd561e33eb1",
  "bytecode": "0x608060405260016004553480156200001657600080fd5b50604051620021423803806200214283398101604081905262000039916200020b565b3380600081620000905760405162461bcd60e51b815260206004820152601860248201527f43616e6e6f7420736574206f776e657220746f207a65726f000000000000000060448201526064015b60405180910390fd5b600680546001600160a01b0319166001600160a01b0384811691909117909155811615620000c357620000c3816200015f565b5050600880546001600160a01b0384166001600160a01b0319918216179091556002805490911673326c977e6efc84e512bb9c30f76e30c160ed06fb17905550600380546001600160a01b0319167340193c8518bb267228fc409a613bdbd8ec5a97b3179055507f3764383061363338366566353433613361626235323831376636373037653362600a55662386f26fc10000600b556200023d565b336001600160a01b03821603620001b95760405162461bcd60e51b815260206004820152601760248201527f43616e6e6f74207472616e7366657220746f2073656c66000000000000000000604482015260640162000087565b600780546001600160a01b0319166001600160a01b03838116918217909255600654604051919216907fed8889f560326eb138920d842192f0eb3dd22b4f139c87a2c57538e05bae127890600090a350565b6000602082840312156200021e57600080fd5b81516001600160a01b03811681146200023657600080fd5b9392505050565b611ef5806200024d6000396000f3fe608060405234801561001057600080fd5b50600436106100a35760003560e01c80638dc654a211610076578063dce496521161005b578063dce4965214610138578063e562dfd61461014b578063f2fde38b1461015e57600080fd5b80638dc654a214610102578063c8c3ab8f1461010a57600080fd5b80632960ddc3146100a857806337441996146100bd57806379ba5097146100d05780638da5cb5b146100d8575b600080fd5b6100bb6100b6366004611284565b610171565b005b6100bb6100cb366004611284565b610218565b6100bb610319565b6006546001600160a01b03165b6040516001600160a01b0390911681526020015b60405180910390f35b6100bb6103db565b61012a6101183660046112cb565b60096020526000908152604090205481565b6040519081526020016100f9565b61012a6101463660046112cb565b610543565b6008546100e5906001600160a01b031681565b6100bb61016c3660046112f9565b6106f7565b600061017c82610708565b905060008180602001905181019061019491906115be565b6008546040517fc79c5bec0000000000000000000000000000000000000000000000000000000081529192506001600160a01b03169063c79c5bec906101e0908790859060040161161f565b600060405180830381600087803b1580156101fa57600080fd5b505af115801561020e573d6000803e3d6000fd5b5050505050505050565b60008281526005602052604090205482906001600160a01b031633146102ab5760405162461bcd60e51b815260206004820152602860248201527f536f75726365206d75737420626520746865206f7261636c65206f662074686560448201527f207265717565737400000000000000000000000000000000000000000000000060648201526084015b60405180910390fd5b600081815260056020526040808220805473ffffffffffffffffffffffffffffffffffffffff191690555182917f7cc135e0cebb02c3480ae5d74d377283180a2601f8f644edf7987b009316c63a91a26000838152600960205260409020546103149083610171565b505050565b6007546001600160a01b031633146103735760405162461bcd60e51b815260206004820152601660248201527f4d7573742062652070726f706f736564206f776e65720000000000000000000060448201526064016102a2565b6006805473ffffffffffffffffffffffffffffffffffffffff19808216339081179093556007805490911690556040516001600160a01b03909116919082907f8be0079c531659141344cd1fd0a4f28419497f9722a3daafe3b4186f6b6457e090600090a350565b6103e36108ba565b60006103f76002546001600160a01b031690565b6040517f70a082310000000000000000000000000000000000000000000000000000000081523060048201529091506001600160a01b0382169063a9059cbb90339083906370a0823190602401602060405180830381865afa158015610461573d6000803e3d6000fd5b505050506040513d601f19601f8201168201806040525081019061048591906117ce565b6040516001600160e01b031960e085901b1681526001600160a01b03909216600483015260248201526044016020604051808303816000875af11580156104d0573d6000803e3d6000fd5b505050506040513d601f19601f820116820180604052508101906104f491906117fc565b6105405760405162461bcd60e51b815260206004820152601260248201527f556e61626c6520746f207472616e73666572000000000000000000000000000060448201526064016102a2565b50565b6008546040517f9507d39a0000000000000000000000000000000000000000000000000000000081526004810183905260009182916001600160a01b0390911690639507d39a90602401600060405180830381865afa1580156105aa573d6000803e3d6000fd5b505050506040513d6000823e601f3d908101601f191682016040526105d29190810190611a1a565b905060006105ea600a5430633744199660e01b610916565b90506106526040518060400160405280600381526020017f67657400000000000000000000000000000000000000000000000000000000008152508360c0015160405160200161063a9190611bc7565b60408051601f198184030181529190528391906109a7565b6106d16040518060400160405280600481526020017f70617468000000000000000000000000000000000000000000000000000000008152506040518060400160405280601381526020017f6f7261636c65526573756c744162694461746100000000000000000000000000815250836109a79092919063ffffffff16565b6106dd81600b546109c5565b600081815260096020526040902094909455509192915050565b6106ff6108ba565b610540816109e8565b8051606090829060000361072c575050604080516000815260208101909152919050565b6004815161073a9190611c48565b156107875760405162461bcd60e51b815260206004820152601c60248201527f696e76616c696420626173653634206465636f64657220696e7075740000000060448201526064016102a2565b60006040518060a0016040528060808152602001611e406080913990506000600483516107b49190611c72565b6107bf906003611c86565b905060006107ce826020611c9d565b67ffffffffffffffff8111156107e6576107e6611171565b6040519080825280601f01601f191660200182016040528015610810576020820181803683370190505b5090508351840151603d60ff82160361083d57600183039250613d3d61ffff82160361083d576001830392505b50818152600183018485518101602084015b818310156108ac57600483019250825160ff8082168601511660ff808360081c168701511660061b0160ff808360101c1687015116600c1b60ff808460181c168801511660121b010190508060e81b82525060038101905061084f565b509298975050505050505050565b6006546001600160a01b031633146109145760405162461bcd60e51b815260206004820152601660248201527f4f6e6c792063616c6c61626c65206279206f776e65720000000000000000000060448201526064016102a2565b565b6109546040805160a0810182526000808252602080830182905282840182905260608084018390528451808601909552845283015290608082015290565b6109926040805160a0810182526000808252602080830182905282840182905260608084018390528451808601909552845283015290608082015290565b61099e81868686610a9f565b95945050505050565b60808301516109b69083610b1b565b60808301516103149082610b1b565b6003546000906109df906001600160a01b03168484610b32565b90505b92915050565b336001600160a01b03821603610a405760405162461bcd60e51b815260206004820152601760248201527f43616e6e6f74207472616e7366657220746f2073656c6600000000000000000060448201526064016102a2565b6007805473ffffffffffffffffffffffffffffffffffffffff19166001600160a01b03838116918217909255600654604051919216907fed8889f560326eb138920d842192f0eb3dd22b4f139c87a2c57538e05bae127890600090a350565b610add6040805160a0810182526000808252602080830182905282840182905260608084018390528451808601909552845283015290608082015290565b610aed8560800151610100610bf3565b50508284526001600160a01b03821660208501526001600160e01b031981166040850152835b949350505050565b610b288260038351610c58565b6103148282610d6d565b600454600090610b43816001611c9d565b600455835160408086015160808701515191516000937f404299460000000000000000000000000000000000000000000000000000000093610b949386938493923092918a91600191602401611cb0565b60408051601f198184030181529190526020810180517bffffffffffffffffffffffffffffffffffffffffffffffffffffffff166001600160e01b0319909316929092179091529050610be986838684610d94565b9695505050505050565b604080518082019091526060815260006020820152610c13602083611c48565b15610c3b57610c23602083611c48565b610c2e906020611d14565b610c389083611c9d565b91505b506020828101829052604080518085526000815290920101905290565b60178167ffffffffffffffff1611610c8357610c7d8360e0600585901b168317610f32565b50505050565b60ff8167ffffffffffffffff1611610cc157610caa836018611fe0600586901b1617610f32565b50610c7d8367ffffffffffffffff83166001610f57565b61ffff8167ffffffffffffffff1611610d0057610ce9836019611fe0600586901b1617610f32565b50610c7d8367ffffffffffffffff83166002610f57565b63ffffffff8167ffffffffffffffff1611610d4157610d2a83601a611fe0600586901b1617610f32565b50610c7d8367ffffffffffffffff83166004610f57565b610d5683601b611fe0600586901b1617610f32565b50610c7d8367ffffffffffffffff83166008610f57565b6040805180820190915260608152600060208201526109df83846000015151848551610f7d565b6040516bffffffffffffffffffffffff193060601b1660208201526034810184905260009060540160408051808303601f19018152828252805160209182012060008181526005909252918120805473ffffffffffffffffffffffffffffffffffffffff19166001600160a01b038a1617905590925082917fb5e6e01e79f91267dc17b4e6314d5d4d03593d2ceee0fbb452b750bd70ea5af99190a26002546040517f4000aea00000000000000000000000000000000000000000000000000000000081526001600160a01b0390911690634000aea090610e7d90889087908790600401611d27565b6020604051808303816000875af1158015610e9c573d6000803e3d6000fd5b505050506040513d601f19601f82011682018060405250810190610ec091906117fc565b610b135760405162461bcd60e51b815260206004820152602360248201527f756e61626c6520746f207472616e73666572416e6443616c6c20746f206f726160448201527f636c65000000000000000000000000000000000000000000000000000000000060648201526084016102a2565b6040805180820190915260608152600060208201526109df8384600001515184611067565b604080518082019091526060815260006020820152610b138485600001515185856110c2565b6040805180820190915260608152600060208201528251821115610fa057600080fd5b6020850151610faf8386611c9d565b1115610fe257610fe285610fd287602001518786610fcd9190611c9d565b611143565b610fdd906002611c86565b61115a565b6000808651805187602083010193508088870111156110015787860182525b505050602084015b602084106110415780518252611020602083611c9d565b915061102d602082611c9d565b905061103a602085611d14565b9350611009565b51815160001960208690036101000a019081169019919091161790525083949350505050565b6040805180820190915260608152600060208201528360200151831061109c5761109c8485602001516002610fdd9190611c86565b83518051602085830101848153508085036110b8576001810182525b5093949350505050565b60408051808201909152606081526000602082015260208501516110e68584611c9d565b11156110fa576110fa85610fd28685611c9d565b6000600161110a84610100611e33565b6111149190611d14565b90508551838682010185831982511617815250805184870111156111385783860181525b509495945050505050565b6000818311156111545750816109e2565b50919050565b81516111668383610bf3565b50610c7d8382610d6d565b634e487b7160e01b600052604160045260246000fd5b6040516101c0810167ffffffffffffffff811182821017156111ab576111ab611171565b60405290565b6040516101a0810167ffffffffffffffff811182821017156111ab576111ab611171565b604051601f8201601f1916810167ffffffffffffffff811182821017156111fe576111fe611171565b604052919050565b600067ffffffffffffffff82111561122057611220611171565b50601f01601f191660200190565b600082601f83011261123f57600080fd5b813561125261124d82611206565b6111d5565b81815284602083860101111561126757600080fd5b816020850160208301376000918101602001919091529392505050565b6000806040838503121561129757600080fd5b82359150602083013567ffffffffffffffff8111156112b557600080fd5b6112c18582860161122e565b9150509250929050565b6000602082840312156112dd57600080fd5b5035919050565b6001600160a01b038116811461054057600080fd5b60006020828403121561130b57600080fd5b8135611316816112e4565b9392505050565b60005b83811015611338578181015183820152602001611320565b50506000910152565b600082601f83011261135257600080fd5b815161136061124d82611206565b81815284602083860101111561137557600080fd5b610b1382602083016020870161131d565b60006101c0828403121561139957600080fd5b6113a1611187565b9050815167ffffffffffffffff808211156113bb57600080fd5b6113c785838601611341565b835260208401519150808211156113dd57600080fd5b6113e985838601611341565b6020840152604084015191508082111561140257600080fd5b61140e85838601611341565b6040840152606084015191508082111561142757600080fd5b61143385838601611341565b6060840152608084015191508082111561144c57600080fd5b61145885838601611341565b608084015260a084015191508082111561147157600080fd5b61147d85838601611341565b60a084015260c084015191508082111561149657600080fd5b6114a285838601611341565b60c084015260e08401519150808211156114bb57600080fd5b6114c785838601611341565b60e0840152610100915081840151818111156114e257600080fd5b6114ee86828701611341565b83850152506101209150818401518181111561150957600080fd5b61151586828701611341565b83850152506101409150818401518181111561153057600080fd5b61153c86828701611341565b83850152506101609150818401518181111561155757600080fd5b61156386828701611341565b83850152506101809150818401518181111561157e57600080fd5b61158a86828701611341565b83850152506101a0915081840151818111156115a557600080fd5b6115b186828701611341565b8385015250505092915050565b6000602082840312156115d057600080fd5b815167ffffffffffffffff8111156115e757600080fd5b610b1384828501611386565b6000815180845261160b81602086016020860161131d565b601f01601f19169290920160200192915050565b82815260406020820152600082516101c08060408501526116446102008501836115f3565b91506020850151603f198086850301606087015261166284836115f3565b9350604087015191508086850301608087015261167f84836115f3565b935060608701519150808685030160a087015261169c84836115f3565b935060808701519150808685030160c08701526116b984836115f3565b935060a08701519150808685030160e08701526116d684836115f3565b935060c087015191506101008187860301818801526116f585846115f3565b945060e0880151925061012082888703018189015261171486856115f3565b9550818901519350610140915082888703018289015261173486856115f3565b95508089015193505061016082888703018189015261175386856115f3565b9550818901519350610180915082888703018289015261177386856115f3565b9550808901519350506101a082888703018189015261179286856115f3565b95508189015193508288870301858901526117ad86856115f3565b9550808901519450505080868503016101e08701525050610be982826115f3565b6000602082840312156117e057600080fd5b5051919050565b805180151581146117f757600080fd5b919050565b60006020828403121561180e57600080fd5b6109df826117e7565b80516117f7816112e4565b60006101a0828403121561183557600080fd5b61183d6111b1565b9050815167ffffffffffffffff8082111561185757600080fd5b61186385838601611341565b8352602084015191508082111561187957600080fd5b61188585838601611341565b6020840152604084015191508082111561189e57600080fd5b6118aa85838601611341565b604084015260608401519150808211156118c357600080fd5b6118cf85838601611341565b606084015260808401519150808211156118e857600080fd5b6118f485838601611341565b608084015260a084015191508082111561190d57600080fd5b61191985838601611341565b60a084015260c084015191508082111561193257600080fd5b61193e85838601611341565b60c084015260e084015191508082111561195757600080fd5b61196385838601611341565b60e08401526101009150818401518181111561197e57600080fd5b61198a86828701611341565b8385015250610120915081840151818111156119a557600080fd5b6119b186828701611341565b8385015250610140915081840151818111156119cc57600080fd5b6119d886828701611341565b8385015250610160915081840151818111156119f357600080fd5b6119ff86828701611341565b8385015250610180915081840151818111156115a557600080fd5b600060208284031215611a2c57600080fd5b815167ffffffffffffffff80821115611a4457600080fd5b908301906101c08286031215611a5957600080fd5b611a61611187565b825182811115611a7057600080fd5b611a7c87828601611341565b82525060208301516020820152611a9560408401611817565b6040820152606083015160608201526080830151608082015260a083015160a082015260c083015182811115611aca57600080fd5b611ad687828601611341565b60c08301525060e083015182811115611aee57600080fd5b611afa87828601611822565b60e0830152506101008084015183811115611b1457600080fd5b611b2088828701611341565b8284015250506101208084015183811115611b3a57600080fd5b611b4688828701611341565b8284015250506101408084015183811115611b6057600080fd5b611b6c88828701611341565b828401525050610160611b808185016117e7565b90820152610180611b928482016117e7565b908201526101a08381015183811115611baa57600080fd5b611bb688828701611386565b918301919091525095945050505050565b7f68747470733a2f2f706f636b792e64656e6f2e6465762f6170692f73706f727481527f2f6e62612f000000000000000000000000000000000000000000000000000000602082015260008251611c2581602585016020870161131d565b9190910160250192915050565b634e487b7160e01b600052601260045260246000fd5b600082611c5757611c57611c32565b500690565b634e487b7160e01b600052601160045260246000fd5b600082611c8157611c81611c32565b500490565b80820281158282048414176109e2576109e2611c5c565b808201808211156109e2576109e2611c5c565b60006101006001600160a01b03808c1684528a60208501528960408501528089166060850152506001600160e01b0319871660808401528560a08401528460c08401528060e0840152611d05818401856115f3565b9b9a5050505050505050505050565b818103818111156109e2576109e2611c5c565b6001600160a01b038416815282602082015260606040820152600061099e60608301846115f3565b600181815b80851115611d8a578160001904821115611d7057611d70611c5c565b80851615611d7d57918102915b93841c9390800290611d54565b509250929050565b600082611da1575060016109e2565b81611dae575060006109e2565b8160018114611dc45760028114611dce57611dea565b60019150506109e2565b60ff841115611ddf57611ddf611c5c565b50506001821b6109e2565b5060208310610133831016604e8410600b8410161715611e0d575081810a6109e2565b611e178383611d4f565b8060001904821115611e2b57611e2b611c5c565b029392505050565b60006109df8383611d9256fe000000000000000000000000000000000000000000000000000000000000000000000000000000000000003e0000003f3435363738393a3b3c3d00000000000000000102030405060708090a0b0c0d0e0f101112131415161718190000000000001a1b1c1d1e1f202122232425262728292a2b2c2d2e2f303132330000000000a2646970667358221220d94c377a38978f0e6a122296c1ad42345174de90bf00bce26a689c2874e7a32b64736f6c63430008110033",
  "devdoc": {
    "kind": "dev",
    "methods": {
      "updateEventResult(uint256,string)": {
        "params": {
          "collectionId": "The collection you want to update",
          "oracleResultAbiData": "The result data from Pocky Sport API Proxy"
        }
      }
    },
    "stateVariables": {
      "collections": {
        "details": "PockyCollections contract, which is a module responsible for managing the dNFT metadata "
      }
    },
    "version": 1
  },
  "userdoc": {
    "kind": "user",
    "methods": {
      "acceptOwnership()": {
        "notice": "Allows an ownership transfer to be completed by the recipient."
      },
      "fulfill(bytes32,string)": {
        "notice": "Receive the response from the Chainlink, and update the collection result."
      },
      "owner()": {
        "notice": "Get the current owner"
      },
      "requestFetchMatchResult(uint256)": {
        "notice": "Create a Chainlink request to retrieve ESPN API response."
      },
      "transferOwnership(address)": {
        "notice": "Allows an owner to begin transferring ownership to a new address, pending."
      },
      "updateEventResult(uint256,string)": {
        "notice": "Decodes the `oracleResultAbiData` from Pocky Sport API Proxy as a `PockyCollections.OracleResult` struct, and update the collection result."
      },
      "withdrawLink()": {
        "notice": "Allow withdraw of Link tokens from the contract"
      }
    },
    "version": 1
  },
  "storageLayout": {
    "storage": [
      {
        "astId": 319,
        "contract": "contracts/PockyAPIConsumer.sol:PockyAPIConsumer",
        "label": "s_ens",
        "offset": 0,
        "slot": "0",
        "type": "t_contract(ENSInterface)1156"
      },
      {
        "astId": 321,
        "contract": "contracts/PockyAPIConsumer.sol:PockyAPIConsumer",
        "label": "s_ensNode",
        "offset": 0,
        "slot": "1",
        "type": "t_bytes32"
      },
      {
        "astId": 324,
        "contract": "contracts/PockyAPIConsumer.sol:PockyAPIConsumer",
        "label": "s_link",
        "offset": 0,
        "slot": "2",
        "type": "t_contract(LinkTokenInterface)1251"
      },
      {
        "astId": 327,
        "contract": "contracts/PockyAPIConsumer.sol:PockyAPIConsumer",
        "label": "s_oracle",
        "offset": 0,
        "slot": "3",
        "type": "t_contract(OperatorInterface)1331"
      },
      {
        "astId": 330,
        "contract": "contracts/PockyAPIConsumer.sol:PockyAPIConsumer",
        "label": "s_requestCount",
        "offset": 0,
        "slot": "4",
        "type": "t_uint256"
      },
      {
        "astId": 334,
        "contract": "contracts/PockyAPIConsumer.sol:PockyAPIConsumer",
        "label": "s_pendingRequests",
        "offset": 0,
        "slot": "5",
        "type": "t_mapping(t_bytes32,t_address)"
      },
      {
        "astId": 889,
        "contract": "contracts/PockyAPIConsumer.sol:PockyAPIConsumer",
        "label": "s_owner",
        "offset": 0,
        "slot": "6",
        "type": "t_address"
      },
      {
        "astId": 891,
        "contract": "contracts/PockyAPIConsumer.sol:PockyAPIConsumer",
        "label": "s_pendingOwner",
        "offset": 0,
        "slot": "7",
        "type": "t_address"
      },
      {
        "astId": 3999,
        "contract": "contracts/PockyAPIConsumer.sol:PockyAPIConsumer",
        "label": "collections",
        "offset": 0,
        "slot": "8",
        "type": "t_contract(PockyCollections)4532"
      },
      {
        "astId": 4003,
        "contract": "contracts/PockyAPIConsumer.sol:PockyAPIConsumer",
        "label": "requestIdToCollectionId",
        "offset": 0,
        "slot": "9",
        "type": "t_mapping(t_bytes32,t_uint256)"
      },
      {
        "astId": 4005,
        "contract": "contracts/PockyAPIConsumer.sol:PockyAPIConsumer",
        "label": "jobId",
        "offset": 0,
        "slot": "10",
        "type": "t_bytes32"
      },
      {
        "astId": 4007,
        "contract": "contracts/PockyAPIConsumer.sol:PockyAPIConsumer",
        "label": "fee",
        "offset": 0,
        "slot": "11",
        "type": "t_uint256"
      }
    ],
    "types": {
      "t_address": {
        "encoding": "inplace",
        "label": "address",
        "numberOfBytes": "20"
      },
      "t_bytes32": {
        "encoding": "inplace",
        "label": "bytes32",
        "numberOfBytes": "32"
      },
      "t_contract(ENSInterface)1156": {
        "encoding": "inplace",
        "label": "contract ENSInterface",
        "numberOfBytes": "20"
      },
      "t_contract(LinkTokenInterface)1251": {
        "encoding": "inplace",
        "label": "contract LinkTokenInterface",
        "numberOfBytes": "20"
      },
      "t_contract(OperatorInterface)1331": {
        "encoding": "inplace",
        "label": "contract OperatorInterface",
        "numberOfBytes": "20"
      },
      "t_contract(PockyCollections)4532": {
        "encoding": "inplace",
        "label": "contract PockyCollections",
        "numberOfBytes": "20"
      },
      "t_mapping(t_bytes32,t_address)": {
        "encoding": "mapping",
        "key": "t_bytes32",
        "label": "mapping(bytes32 => address)",
        "numberOfBytes": "32",
        "value": "t_address"
      },
      "t_mapping(t_bytes32,t_uint256)": {
        "encoding": "mapping",
        "key": "t_bytes32",
        "label": "mapping(bytes32 => uint256)",
        "numberOfBytes": "32",
        "value": "t_uint256"
      },
      "t_uint256": {
        "encoding": "inplace",
        "label": "uint256",
        "numberOfBytes": "32"
      }
    }
  }
}