{
  "address": "0x0f5568eBE7Ed064588dAbAe9DB07F882D207Af58",
  "abi": [
    {
      "inputs": [
        {
          "internalType": "contract PockyCollections",
          "name": "_collections",
          "type": "address"
        }
      ],
      "stateMutability": "nonpayable",
      "type": "constructor"
    },
    {
      "anonymous": false,
      "inputs": [
        {
          "indexed": true,
          "internalType": "address",
          "name": "owner",
          "type": "address"
        },
        {
          "indexed": true,
          "internalType": "address",
          "name": "approved",
          "type": "address"
        },
        {
          "indexed": true,
          "internalType": "uint256",
          "name": "tokenId",
          "type": "uint256"
        }
      ],
      "name": "Approval",
      "type": "event"
    },
    {
      "anonymous": false,
      "inputs": [
        {
          "indexed": true,
          "internalType": "address",
          "name": "owner",
          "type": "address"
        },
        {
          "indexed": true,
          "internalType": "address",
          "name": "operator",
          "type": "address"
        },
        {
          "indexed": false,
          "internalType": "bool",
          "name": "approved",
          "type": "bool"
        }
      ],
      "name": "ApprovalForAll",
      "type": "event"
    },
    {
      "anonymous": false,
      "inputs": [
        {
          "indexed": true,
          "internalType": "bytes32",
          "name": "role",
          "type": "bytes32"
        },
        {
          "indexed": true,
          "internalType": "bytes32",
          "name": "previousAdminRole",
          "type": "bytes32"
        },
        {
          "indexed": true,
          "internalType": "bytes32",
          "name": "newAdminRole",
          "type": "bytes32"
        }
      ],
      "name": "RoleAdminChanged",
      "type": "event"
    },
    {
      "anonymous": false,
      "inputs": [
        {
          "indexed": true,
          "internalType": "bytes32",
          "name": "role",
          "type": "bytes32"
        },
        {
          "indexed": true,
          "internalType": "address",
          "name": "account",
          "type": "address"
        },
        {
          "indexed": true,
          "internalType": "address",
          "name": "sender",
          "type": "address"
        }
      ],
      "name": "RoleGranted",
      "type": "event"
    },
    {
      "anonymous": false,
      "inputs": [
        {
          "indexed": true,
          "internalType": "bytes32",
          "name": "role",
          "type": "bytes32"
        },
        {
          "indexed": true,
          "internalType": "address",
          "name": "account",
          "type": "address"
        },
        {
          "indexed": true,
          "internalType": "address",
          "name": "sender",
          "type": "address"
        }
      ],
      "name": "RoleRevoked",
      "type": "event"
    },
    {
      "anonymous": false,
      "inputs": [
        {
          "indexed": true,
          "internalType": "address",
          "name": "from",
          "type": "address"
        },
        {
          "indexed": true,
          "internalType": "address",
          "name": "to",
          "type": "address"
        },
        {
          "indexed": true,
          "internalType": "uint256",
          "name": "tokenId",
          "type": "uint256"
        }
      ],
      "name": "Transfer",
      "type": "event"
    },
    {
      "inputs": [],
      "name": "DEFAULT_ADMIN_ROLE",
      "outputs": [
        {
          "internalType": "bytes32",
          "name": "",
          "type": "bytes32"
        }
      ],
      "stateMutability": "view",
      "type": "function"
    },
    {
      "inputs": [],
      "name": "MINTER_ROLE",
      "outputs": [
        {
          "internalType": "bytes32",
          "name": "",
          "type": "bytes32"
        }
      ],
      "stateMutability": "view",
      "type": "function"
    },
    {
      "inputs": [
        {
          "internalType": "address",
          "name": "to",
          "type": "address"
        },
        {
          "internalType": "uint256",
          "name": "tokenId",
          "type": "uint256"
        }
      ],
      "name": "approve",
      "outputs": [],
      "stateMutability": "nonpayable",
      "type": "function"
    },
    {
      "inputs": [
        {
          "internalType": "address",
          "name": "owner",
          "type": "address"
        }
      ],
      "name": "balanceOf",
      "outputs": [
        {
          "internalType": "uint256",
          "name": "",
          "type": "uint256"
        }
      ],
      "stateMutability": "view",
      "type": "function"
    },
    {
      "inputs": [
        {
          "internalType": "uint256",
          "name": "tokenId",
          "type": "uint256"
        }
      ],
      "name": "collectionOf",
      "outputs": [
        {
          "components": [
            {
              "internalType": "string",
              "name": "name",
              "type": "string"
            },
            {
              "internalType": "uint256",
              "name": "priceInETH",
              "type": "uint256"
            },
            {
              "internalType": "address",
              "name": "owner",
              "type": "address"
            },
            {
              "internalType": "uint256",
              "name": "maxSupply",
              "type": "uint256"
            },
            {
              "internalType": "uint256",
              "name": "startDate",
              "type": "uint256"
            },
            {
              "internalType": "uint256",
              "name": "endDate",
              "type": "uint256"
            },
            {
              "internalType": "string",
              "name": "matchDate",
              "type": "string"
            },
            {
              "components": [
                {
                  "internalType": "string",
                  "name": "homeTeamName",
                  "type": "string"
                },
                {
                  "internalType": "string",
                  "name": "homeTeamSymbol",
                  "type": "string"
                },
                {
                  "internalType": "string",
                  "name": "homeTeamLogo",
                  "type": "string"
                },
                {
                  "internalType": "string",
                  "name": "homeTeamColor",
                  "type": "string"
                },
                {
                  "internalType": "string",
                  "name": "awayTeamName",
                  "type": "string"
                },
                {
                  "internalType": "string",
                  "name": "awayTeamSymbol",
                  "type": "string"
                },
                {
                  "internalType": "string",
                  "name": "awayTeamLogo",
                  "type": "string"
                },
                {
                  "internalType": "string",
                  "name": "awayTeamColor",
                  "type": "string"
                },
                {
                  "internalType": "string",
                  "name": "qrCodeUrl",
                  "type": "string"
                },
                {
                  "internalType": "string",
                  "name": "dateLine1",
                  "type": "string"
                },
                {
                  "internalType": "string",
                  "name": "dateLine2",
                  "type": "string"
                },
                {
                  "internalType": "string",
                  "name": "locationLine1",
                  "type": "string"
                },
                {
                  "internalType": "string",
                  "name": "locationLine2",
                  "type": "string"
                }
              ],
              "internalType": "struct PockyCollections.TicketSVGMetadata",
              "name": "ticketSvgMetadata",
              "type": "tuple"
            },
            {
              "internalType": "string",
              "name": "eventLocation",
              "type": "string"
            },
            {
              "internalType": "string",
              "name": "description",
              "type": "string"
            },
            {
              "internalType": "string",
              "name": "imageUrl",
              "type": "string"
            },
            {
              "internalType": "bool",
              "name": "featured",
              "type": "bool"
            },
            {
              "internalType": "bool",
              "name": "updated",
              "type": "bool"
            },
            {
              "components": [
                {
                  "internalType": "string",
                  "name": "homeScore",
                  "type": "string"
                },
                {
                  "internalType": "string",
                  "name": "homeFGM",
                  "type": "string"
                },
                {
                  "internalType": "string",
                  "name": "homeFGP",
                  "type": "string"
                },
                {
                  "internalType": "string",
                  "name": "homeTPM",
                  "type": "string"
                },
                {
                  "internalType": "string",
                  "name": "homeTPP",
                  "type": "string"
                },
                {
                  "internalType": "string",
                  "name": "homeFTM",
                  "type": "string"
                },
                {
                  "internalType": "string",
                  "name": "homeFTP",
                  "type": "string"
                },
                {
                  "internalType": "string",
                  "name": "awayScore",
                  "type": "string"
                },
                {
                  "internalType": "string",
                  "name": "awayFGM",
                  "type": "string"
                },
                {
                  "internalType": "string",
                  "name": "awayFGP",
                  "type": "string"
                },
                {
                  "internalType": "string",
                  "name": "awayTPM",
                  "type": "string"
                },
                {
                  "internalType": "string",
                  "name": "awayTPP",
                  "type": "string"
                },
                {
                  "internalType": "string",
                  "name": "awayFTM",
                  "type": "string"
                },
                {
                  "internalType": "string",
                  "name": "awayFTP",
                  "type": "string"
                }
              ],
              "internalType": "struct PockyCollections.OracleResult",
              "name": "eventResult",
              "type": "tuple"
            }
          ],
          "internalType": "struct PockyCollections.Collection",
          "name": "",
          "type": "tuple"
        }
      ],
      "stateMutability": "view",
      "type": "function"
    },
    {
      "inputs": [],
      "name": "collections",
      "outputs": [
        {
          "internalType": "contract PockyCollections",
          "name": "",
          "type": "address"
        }
      ],
      "stateMutability": "view",
      "type": "function"
    },
    {
      "inputs": [
        {
          "internalType": "uint256",
          "name": "tokenId",
          "type": "uint256"
        }
      ],
      "name": "getApproved",
      "outputs": [
        {
          "internalType": "address",
          "name": "",
          "type": "address"
        }
      ],
      "stateMutability": "view",
      "type": "function"
    },
    {
      "inputs": [
        {
          "internalType": "bytes32",
          "name": "role",
          "type": "bytes32"
        }
      ],
      "name": "getRoleAdmin",
      "outputs": [
        {
          "internalType": "bytes32",
          "name": "",
          "type": "bytes32"
        }
      ],
      "stateMutability": "view",
      "type": "function"
    },
    {
      "inputs": [
        {
          "internalType": "bytes32",
          "name": "role",
          "type": "bytes32"
        },
        {
          "internalType": "address",
          "name": "account",
          "type": "address"
        }
      ],
      "name": "grantRole",
      "outputs": [],
      "stateMutability": "nonpayable",
      "type": "function"
    },
    {
      "inputs": [
        {
          "internalType": "bytes32",
          "name": "role",
          "type": "bytes32"
        },
        {
          "internalType": "address",
          "name": "account",
          "type": "address"
        }
      ],
      "name": "hasRole",
      "outputs": [
        {
          "internalType": "bool",
          "name": "",
          "type": "bool"
        }
      ],
      "stateMutability": "view",
      "type": "function"
    },
    {
      "inputs": [
        {
          "internalType": "address",
          "name": "owner",
          "type": "address"
        },
        {
          "internalType": "address",
          "name": "operator",
          "type": "address"
        }
      ],
      "name": "isApprovedForAll",
      "outputs": [
        {
          "internalType": "bool",
          "name": "",
          "type": "bool"
        }
      ],
      "stateMutability": "view",
      "type": "function"
    },
    {
      "inputs": [
        {
          "internalType": "uint256",
          "name": "collectionId",
          "type": "uint256"
        },
        {
          "internalType": "address",
          "name": "to",
          "type": "address"
        }
      ],
      "name": "mint",
      "outputs": [],
      "stateMutability": "nonpayable",
      "type": "function"
    },
    {
      "inputs": [],
      "name": "name",
      "outputs": [
        {
          "internalType": "string",
          "name": "",
          "type": "string"
        }
      ],
      "stateMutability": "view",
      "type": "function"
    },
    {
      "inputs": [
        {
          "internalType": "uint256",
          "name": "tokenId",
          "type": "uint256"
        }
      ],
      "name": "ownerOf",
      "outputs": [
        {
          "internalType": "address",
          "name": "",
          "type": "address"
        }
      ],
      "stateMutability": "view",
      "type": "function"
    },
    {
      "inputs": [
        {
          "internalType": "bytes32",
          "name": "role",
          "type": "bytes32"
        },
        {
          "internalType": "address",
          "name": "account",
          "type": "address"
        }
      ],
      "name": "renounceRole",
      "outputs": [],
      "stateMutability": "nonpayable",
      "type": "function"
    },
    {
      "inputs": [
        {
          "internalType": "bytes32",
          "name": "role",
          "type": "bytes32"
        },
        {
          "internalType": "address",
          "name": "account",
          "type": "address"
        }
      ],
      "name": "revokeRole",
      "outputs": [],
      "stateMutability": "nonpayable",
      "type": "function"
    },
    {
      "inputs": [
        {
          "internalType": "address",
          "name": "from",
          "type": "address"
        },
        {
          "internalType": "address",
          "name": "to",
          "type": "address"
        },
        {
          "internalType": "uint256",
          "name": "tokenId",
          "type": "uint256"
        }
      ],
      "name": "safeTransferFrom",
      "outputs": [],
      "stateMutability": "nonpayable",
      "type": "function"
    },
    {
      "inputs": [
        {
          "internalType": "address",
          "name": "from",
          "type": "address"
        },
        {
          "internalType": "address",
          "name": "to",
          "type": "address"
        },
        {
          "internalType": "uint256",
          "name": "tokenId",
          "type": "uint256"
        },
        {
          "internalType": "bytes",
          "name": "data",
          "type": "bytes"
        }
      ],
      "name": "safeTransferFrom",
      "outputs": [],
      "stateMutability": "nonpayable",
      "type": "function"
    },
    {
      "inputs": [
        {
          "internalType": "address",
          "name": "operator",
          "type": "address"
        },
        {
          "internalType": "bool",
          "name": "approved",
          "type": "bool"
        }
      ],
      "name": "setApprovalForAll",
      "outputs": [],
      "stateMutability": "nonpayable",
      "type": "function"
    },
    {
      "inputs": [
        {
          "internalType": "bytes4",
          "name": "interfaceId",
          "type": "bytes4"
        }
      ],
      "name": "supportsInterface",
      "outputs": [
        {
          "internalType": "bool",
          "name": "",
          "type": "bool"
        }
      ],
      "stateMutability": "view",
      "type": "function"
    },
    {
      "inputs": [],
      "name": "symbol",
      "outputs": [
        {
          "internalType": "string",
          "name": "",
          "type": "string"
        }
      ],
      "stateMutability": "view",
      "type": "function"
    },
    {
      "inputs": [
        {
          "internalType": "uint256",
          "name": "index",
          "type": "uint256"
        }
      ],
      "name": "tokenByIndex",
      "outputs": [
        {
          "internalType": "uint256",
          "name": "",
          "type": "uint256"
        }
      ],
      "stateMutability": "view",
      "type": "function"
    },
    {
      "inputs": [
        {
          "internalType": "uint256",
          "name": "",
          "type": "uint256"
        }
      ],
      "name": "tokenIdToCollectionId",
      "outputs": [
        {
          "internalType": "uint256",
          "name": "",
          "type": "uint256"
        }
      ],
      "stateMutability": "view",
      "type": "function"
    },
    {
      "inputs": [
        {
          "internalType": "address",
          "name": "owner",
          "type": "address"
        },
        {
          "internalType": "uint256",
          "name": "index",
          "type": "uint256"
        }
      ],
      "name": "tokenOfOwnerByIndex",
      "outputs": [
        {
          "internalType": "uint256",
          "name": "",
          "type": "uint256"
        }
      ],
      "stateMutability": "view",
      "type": "function"
    },
    {
      "inputs": [
        {
          "internalType": "uint256",
          "name": "tokenId",
          "type": "uint256"
        }
      ],
      "name": "tokenURI",
      "outputs": [
        {
          "internalType": "string",
          "name": "",
          "type": "string"
        }
      ],
      "stateMutability": "view",
      "type": "function"
    },
    {
      "inputs": [],
      "name": "totalSupply",
      "outputs": [
        {
          "internalType": "uint256",
          "name": "",
          "type": "uint256"
        }
      ],
      "stateMutability": "view",
      "type": "function"
    },
    {
      "inputs": [
        {
          "internalType": "uint256",
          "name": "collectionId",
          "type": "uint256"
        }
      ],
      "name": "totalSupplyOfCollection",
      "outputs": [
        {
          "internalType": "uint256",
          "name": "",
          "type": "uint256"
        }
      ],
      "stateMutability": "view",
      "type": "function"
    },
    {
      "inputs": [
        {
          "internalType": "address",
          "name": "from",
          "type": "address"
        },
        {
          "internalType": "address",
          "name": "to",
          "type": "address"
        },
        {
          "internalType": "uint256",
          "name": "tokenId",
          "type": "uint256"
        }
      ],
      "name": "transferFrom",
      "outputs": [],
      "stateMutability": "nonpayable",
      "type": "function"
    }
  ],
  "transactionHash": "0x062704ee9a342dff84f1919c9907eeb7e7d4eb0ab49c703dff19a8cf69027533",
  "args": [
    "0xa9f6E9B62A45216cdC67DB52BaE41269185d931B"
  ],
  "numDeployments": 1,
  "solcInputHash": "df058e6789564aa6282e6bc6f34413ac",
  "bytecode": "0x60806040523480156200001157600080fd5b50604051620031eb380380620031eb8339810160408190526200003491620001b5565b6040518060400160405280600c81526020016b141bd8dade48151a58dad95d60a21b8152506040518060400160405280600b81526020016a1413d0d2d6551250d2d15560aa1b81525081600090816200008e91906200028c565b5060016200009d82826200028c565b50620000af9150600090503362000101565b620000db7f9f2df0fed2c77648de5860a4cc508cd0818c85b8b8a1ab4ceeef8d981c8956a63362000101565b600b80546001600160a01b0319166001600160a01b039290921691909117905562000358565b6200010d828262000111565b5050565b6000828152600a602090815260408083206001600160a01b038516845290915290205460ff166200010d576000828152600a602090815260408083206001600160a01b03851684529091529020805460ff19166001179055620001713390565b6001600160a01b0316816001600160a01b0316837f2f8788117e7eff1d82e926ec794901d17c78024a50270940304540a733656f0d60405160405180910390a45050565b600060208284031215620001c857600080fd5b81516001600160a01b0381168114620001e057600080fd5b9392505050565b634e487b7160e01b600052604160045260246000fd5b600181811c908216806200021257607f821691505b6020821081036200023357634e487b7160e01b600052602260045260246000fd5b50919050565b601f8211156200028757600081815260208120601f850160051c81016020861015620002625750805b601f850160051c820191505b8181101562000283578281556001016200026e565b5050505b505050565b81516001600160401b03811115620002a857620002a8620001e7565b620002c081620002b98454620001fd565b8462000239565b602080601f831160018114620002f85760008415620002df5750858301515b600019600386901b1c1916600185901b17855562000283565b600085815260208120601f198616915b82811015620003295788860151825594840194600190910190840162000308565b5085821015620003485787850151600019600388901b60f8161c191681555b5050505050600190811b01905550565b612e8380620003686000396000f3fe608060405234801561001057600080fd5b50600436106101c45760003560e01c806375c10ffa116100f9578063c7778baa11610097578063d547741f11610071578063d547741f1461040f578063e562dfd614610422578063e985e9c514610435578063f18332dd1461047157600080fd5b8063c7778baa146103b5578063c87b56dd146103d5578063d5391393146103e857600080fd5b806395d89b41116100d357806395d89b411461037f578063a217fddf14610387578063a22cb4651461038f578063b88d4fde146103a257600080fd5b806375c10ffa1461031357806391d148541461033357806394bf804d1461036c57600080fd5b80632f2ff15d1161016657806342842e0e1161014057806342842e0e146102c75780634f6ccce7146102da5780636352211e146102ed57806370a082311461030057600080fd5b80632f2ff15d1461028e5780632f745c59146102a157806336568abe146102b457600080fd5b8063095ea7b3116101a2578063095ea7b31461023157806318160ddd1461024657806323b872dd14610258578063248a9ca31461026b57600080fd5b806301ffc9a7146101c957806306fdde03146101f1578063081812fc14610206575b600080fd5b6101dc6101d7366004611ee6565b610491565b60405190151581526020015b60405180910390f35b6101f96104a2565b6040516101e89190611f53565b610219610214366004611f66565b610534565b6040516001600160a01b0390911681526020016101e8565b61024461023f366004611f94565b61055b565b005b6008545b6040519081526020016101e8565b610244610266366004611fc0565b610691565b61024a610279366004611f66565b6000908152600a602052604090206001015490565b61024461029c366004612001565b610708565b61024a6102af366004611f94565b61072d565b6102446102c2366004612001565b6107d5565b6102446102d5366004611fc0565b610861565b61024a6102e8366004611f66565b61087c565b6102196102fb366004611f66565b610920565b61024a61030e366004612031565b610985565b61024a610321366004611f66565b600c6020526000908152604090205481565b6101dc610341366004612001565b6000918252600a602090815260408084206001600160a01b0393909316845291905290205460ff1690565b61024461037a366004612001565b610a1f565b6101f9610b7c565b61024a600081565b61024461039d36600461205c565b610b8b565b6102446103b0366004612147565b610b96565b6103c86103c3366004611f66565b610c14565b6040516101e891906124ca565b6101f96103e3366004611f66565b610d07565b61024a7f9f2df0fed2c77648de5860a4cc508cd0818c85b8b8a1ab4ceeef8d981c8956a681565b61024461041d366004612001565b610e0e565b600b54610219906001600160a01b031681565b6101dc61044336600461260d565b6001600160a01b03918216600090815260056020908152604080832093909416825291909152205460ff1690565b61024a61047f366004611f66565b6000908152600d602052604090205490565b600061049c82610e33565b92915050565b6060600080546104b19061263b565b80601f01602080910402602001604051908101604052809291908181526020018280546104dd9061263b565b801561052a5780601f106104ff5761010080835404028352916020019161052a565b820191906000526020600020905b81548152906001019060200180831161050d57829003601f168201915b5050505050905090565b600061053f82610e71565b506000908152600460205260409020546001600160a01b031690565b600061056682610920565b9050806001600160a01b0316836001600160a01b0316036105f45760405162461bcd60e51b815260206004820152602160248201527f4552433732313a20617070726f76616c20746f2063757272656e74206f776e6560448201527f720000000000000000000000000000000000000000000000000000000000000060648201526084015b60405180910390fd5b336001600160a01b038216148061061057506106108133610443565b6106825760405162461bcd60e51b815260206004820152603d60248201527f4552433732313a20617070726f76652063616c6c6572206973206e6f7420746f60448201527f6b656e206f776e6572206f7220617070726f76656420666f7220616c6c00000060648201526084016105eb565b61068c8383610ed8565b505050565b61069b3382610f53565b6106fd5760405162461bcd60e51b815260206004820152602d60248201527f4552433732313a2063616c6c6572206973206e6f7420746f6b656e206f776e6560448201526c1c881bdc88185c1c1c9bdd9959609a1b60648201526084016105eb565b61068c838383610fd2565b6000828152600a6020526040902060010154610723816111e5565b61068c83836111ef565b600061073883610985565b82106107ac5760405162461bcd60e51b815260206004820152602b60248201527f455243373231456e756d657261626c653a206f776e657220696e646578206f7560448201527f74206f6620626f756e647300000000000000000000000000000000000000000060648201526084016105eb565b506001600160a01b03919091166000908152600660209081526040808320938352929052205490565b6001600160a01b03811633146108535760405162461bcd60e51b815260206004820152602f60248201527f416363657373436f6e74726f6c3a2063616e206f6e6c792072656e6f756e636560448201527f20726f6c657320666f722073656c66000000000000000000000000000000000060648201526084016105eb565b61085d8282611291565b5050565b61068c83838360405180602001604052806000815250610b96565b600061088760085490565b82106108fb5760405162461bcd60e51b815260206004820152602c60248201527f455243373231456e756d657261626c653a20676c6f62616c20696e646578206f60448201527f7574206f6620626f756e6473000000000000000000000000000000000000000060648201526084016105eb565b6008828154811061090e5761090e612675565b90600052602060002001549050919050565b6000818152600260205260408120546001600160a01b03168061049c5760405162461bcd60e51b815260206004820152601860248201527f4552433732313a20696e76616c696420746f6b656e204944000000000000000060448201526064016105eb565b60006001600160a01b038216610a035760405162461bcd60e51b815260206004820152602960248201527f4552433732313a2061646472657373207a65726f206973206e6f74206120766160448201527f6c6964206f776e6572000000000000000000000000000000000000000000000060648201526084016105eb565b506001600160a01b031660009081526003602052604090205490565b7f9f2df0fed2c77648de5860a4cc508cd0818c85b8b8a1ab4ceeef8d981c8956a6610a49816111e5565b600b54604051634a83e9cd60e11b8152600481018590526000916001600160a01b031690639507d39a90602401600060405180830381865afa158015610a93573d6000803e3d6000fd5b505050506040513d6000823e601f3d908101601f19168201604052610abb9190810190612b1b565b60608101516000868152600d602052604090205491925011610b1f5760405162461bcd60e51b815260206004820152600860248201527f736f6c64206f757400000000000000000000000000000000000000000000000060448201526064016105eb565b6000610b2a60085490565b610b35906001612cde565b9050610b418482611314565b6000818152600c60209081526040808320889055878352600d9091528120805460019290610b70908490612cde565b90915550505050505050565b6060600180546104b19061263b565b61085d3383836114ba565b610ba03383610f53565b610c025760405162461bcd60e51b815260206004820152602d60248201527f4552433732313a2063616c6c6572206973206e6f7420746f6b656e206f776e6560448201526c1c881bdc88185c1c1c9bdd9959609a1b60648201526084016105eb565b610c0e84848484611588565b50505050565b610c1c611d7c565b6000828152600260205260409020546001600160a01b0316610c805760405162461bcd60e51b815260206004820152601b60248201527f717565727920666f72206e6f6e6578697374656e7420746f6b656e000000000060448201526064016105eb565b600b546000838152600c602052604090819020549051634a83e9cd60e11b81526001600160a01b0390921691639507d39a91610cc29160040190815260200190565b600060405180830381865afa158015610cdf573d6000803e3d6000fd5b505050506040513d6000823e601f3d908101601f1916820160405261049c9190810190612b1b565b6000818152600260205260409020546060906001600160a01b0316610d6e5760405162461bcd60e51b815260206004820152601f60248201527f55524920717565727920666f72206e6f6e6578697374656e7420746f6b656e0060448201526064016105eb565b600b546000838152600c6020526040908190205490517fcf88a8240000000000000000000000000000000000000000000000000000000081526001600160a01b039092169163cf88a82491610dc99160040190815260200190565b600060405180830381865afa158015610de6573d6000803e3d6000fd5b505050506040513d6000823e601f3d908101601f1916820160405261049c9190810190612cf1565b6000828152600a6020526040902060010154610e29816111e5565b61068c8383611291565b60006001600160e01b031982167f7965db0b00000000000000000000000000000000000000000000000000000000148061049c575061049c82611611565b6000818152600260205260409020546001600160a01b0316610ed55760405162461bcd60e51b815260206004820152601860248201527f4552433732313a20696e76616c696420746f6b656e204944000000000000000060448201526064016105eb565b50565b6000818152600460205260409020805473ffffffffffffffffffffffffffffffffffffffff19166001600160a01b0384169081179091558190610f1a82610920565b6001600160a01b03167f8c5be1e5ebec7d5bd14f71427d1e84f3dd0314c0f7b2291e5b200ac8c7c3b92560405160405180910390a45050565b600080610f5f83610920565b9050806001600160a01b0316846001600160a01b03161480610fa657506001600160a01b0380821660009081526005602090815260408083209388168352929052205460ff165b80610fca5750836001600160a01b0316610fbf84610534565b6001600160a01b0316145b949350505050565b826001600160a01b0316610fe582610920565b6001600160a01b0316146110495760405162461bcd60e51b815260206004820152602560248201527f4552433732313a207472616e736665722066726f6d20696e636f72726563742060448201526437bbb732b960d91b60648201526084016105eb565b6001600160a01b0382166110c45760405162461bcd60e51b8152602060048201526024808201527f4552433732313a207472616e7366657220746f20746865207a65726f2061646460448201527f726573730000000000000000000000000000000000000000000000000000000060648201526084016105eb565b6110d1838383600161164f565b826001600160a01b03166110e482610920565b6001600160a01b0316146111485760405162461bcd60e51b815260206004820152602560248201527f4552433732313a207472616e736665722066726f6d20696e636f72726563742060448201526437bbb732b960d91b60648201526084016105eb565b6000818152600460209081526040808320805473ffffffffffffffffffffffffffffffffffffffff199081169091556001600160a01b0387811680865260038552838620805460001901905590871680865283862080546001019055868652600290945282852080549092168417909155905184937fddf252ad1be2c89b69c2b068fc378daa952ba7f163c4a11628f55a4df523b3ef91a4505050565b610ed5813361178b565b6000828152600a602090815260408083206001600160a01b038516845290915290205460ff1661085d576000828152600a602090815260408083206001600160a01b03851684529091529020805460ff1916600117905561124d3390565b6001600160a01b0316816001600160a01b0316837f2f8788117e7eff1d82e926ec794901d17c78024a50270940304540a733656f0d60405160405180910390a45050565b6000828152600a602090815260408083206001600160a01b038516845290915290205460ff161561085d576000828152600a602090815260408083206001600160a01b0385168085529252808320805460ff1916905551339285917ff6391f5c32d9c69d2a47ea670b442974b53935d1edc7fd64eb21e047a839171b9190a45050565b6001600160a01b03821661136a5760405162461bcd60e51b815260206004820181905260248201527f4552433732313a206d696e7420746f20746865207a65726f206164647265737360448201526064016105eb565b6000818152600260205260409020546001600160a01b0316156113cf5760405162461bcd60e51b815260206004820152601c60248201527f4552433732313a20746f6b656e20616c7265616479206d696e7465640000000060448201526064016105eb565b6113dd60008383600161164f565b6000818152600260205260409020546001600160a01b0316156114425760405162461bcd60e51b815260206004820152601c60248201527f4552433732313a20746f6b656e20616c7265616479206d696e7465640000000060448201526064016105eb565b6001600160a01b0382166000818152600360209081526040808320805460010190558483526002909152808220805473ffffffffffffffffffffffffffffffffffffffff19168417905551839291907fddf252ad1be2c89b69c2b068fc378daa952ba7f163c4a11628f55a4df523b3ef908290a45050565b816001600160a01b0316836001600160a01b03160361151b5760405162461bcd60e51b815260206004820152601960248201527f4552433732313a20617070726f766520746f2063616c6c65720000000000000060448201526064016105eb565b6001600160a01b03838116600081815260056020908152604080832094871680845294825291829020805460ff191686151590811790915591519182527f17307eab39ab6107e8899845ad3d59bd9653f200f220920489ca2b5937696c31910160405180910390a3505050565b611593848484610fd2565b61159f84848484611800565b610c0e5760405162461bcd60e51b815260206004820152603260248201527f4552433732313a207472616e7366657220746f206e6f6e20455243373231526560448201527f63656976657220696d706c656d656e746572000000000000000000000000000060648201526084016105eb565b60006001600160e01b031982167f780e9d6300000000000000000000000000000000000000000000000000000000148061049c575061049c82611957565b60018111156116c65760405162461bcd60e51b815260206004820152603560248201527f455243373231456e756d657261626c653a20636f6e736563757469766520747260448201527f616e7366657273206e6f7420737570706f72746564000000000000000000000060648201526084016105eb565b816001600160a01b0385166117225761171d81600880546000838152600960205260408120829055600182018355919091527ff3f7a9fe364faab93b216da50a3214154f22a0a2b415b23a84c8169e8b636ee30155565b611745565b836001600160a01b0316856001600160a01b0316146117455761174585826119f2565b6001600160a01b0384166117615761175c81611a8f565b611784565b846001600160a01b0316846001600160a01b031614611784576117848482611b3e565b5050505050565b6000828152600a602090815260408083206001600160a01b038516845290915290205460ff1661085d576117be81611b82565b6117c9836020611b94565b6040516020016117da929190612d26565b60408051601f198184030181529082905262461bcd60e51b82526105eb91600401611f53565b60006001600160a01b0384163b1561194c57604051630a85bd0160e11b81526001600160a01b0385169063150b7a0290611844903390899088908890600401612da7565b6020604051808303816000875af192505050801561187f575060408051601f3d908101601f1916820190925261187c91810190612dd9565b60015b611932573d8080156118ad576040519150601f19603f3d011682016040523d82523d6000602084013e6118b2565b606091505b50805160000361192a5760405162461bcd60e51b815260206004820152603260248201527f4552433732313a207472616e7366657220746f206e6f6e20455243373231526560448201527f63656976657220696d706c656d656e746572000000000000000000000000000060648201526084016105eb565b805181602001fd5b6001600160e01b031916630a85bd0160e11b149050610fca565b506001949350505050565b60006001600160e01b031982167f80ac58cd0000000000000000000000000000000000000000000000000000000014806119ba57506001600160e01b031982167f5b5e139f00000000000000000000000000000000000000000000000000000000145b8061049c57507f01ffc9a7000000000000000000000000000000000000000000000000000000006001600160e01b031983161461049c565b600060016119ff84610985565b611a099190612df6565b600083815260076020526040902054909150808214611a5c576001600160a01b03841660009081526006602090815260408083208584528252808320548484528184208190558352600790915290208190555b5060009182526007602090815260408084208490556001600160a01b039094168352600681528383209183525290812055565b600854600090611aa190600190612df6565b60008381526009602052604081205460088054939450909284908110611ac957611ac9612675565b906000526020600020015490508060088381548110611aea57611aea612675565b6000918252602080832090910192909255828152600990915260408082208490558582528120556008805480611b2257611b22612e09565b6001900381819060005260206000200160009055905550505050565b6000611b4983610985565b6001600160a01b039093166000908152600660209081526040808320868452825280832085905593825260079052919091209190915550565b606061049c6001600160a01b03831660145b60606000611ba3836002612e1f565b611bae906002612cde565b67ffffffffffffffff811115611bc657611bc661208a565b6040519080825280601f01601f191660200182016040528015611bf0576020820181803683370190505b5090507f300000000000000000000000000000000000000000000000000000000000000081600081518110611c2757611c27612675565b60200101906001600160f81b031916908160001a9053507f780000000000000000000000000000000000000000000000000000000000000081600181518110611c7257611c72612675565b60200101906001600160f81b031916908160001a9053506000611c96846002612e1f565b611ca1906001612cde565b90505b6001811115611d26577f303132333435363738396162636465660000000000000000000000000000000085600f1660108110611ce257611ce2612675565b1a60f81b828281518110611cf857611cf8612675565b60200101906001600160f81b031916908160001a90535060049490941c93611d1f81612e36565b9050611ca4565b508315611d755760405162461bcd60e51b815260206004820181905260248201527f537472696e67733a20686578206c656e67746820696e73756666696369656e7460448201526064016105eb565b9392505050565b604051806101c00160405280606081526020016000815260200160006001600160a01b0316815260200160008152602001600081526020016000815260200160608152602001611e2d604051806101a00160405280606081526020016060815260200160608152602001606081526020016060815260200160608152602001606081526020016060815260200160608152602001606081526020016060815260200160608152602001606081525090565b8152602001606081526020016060815260200160608152602001600015158152602001600015158152602001611ecb604051806101c0016040528060608152602001606081526020016060815260200160608152602001606081526020016060815260200160608152602001606081526020016060815260200160608152602001606081526020016060815260200160608152602001606081525090565b905290565b6001600160e01b031981168114610ed557600080fd5b600060208284031215611ef857600080fd5b8135611d7581611ed0565b60005b83811015611f1e578181015183820152602001611f06565b50506000910152565b60008151808452611f3f816020860160208601611f03565b601f01601f19169290920160200192915050565b602081526000611d756020830184611f27565b600060208284031215611f7857600080fd5b5035919050565b6001600160a01b0381168114610ed557600080fd5b60008060408385031215611fa757600080fd5b8235611fb281611f7f565b946020939093013593505050565b600080600060608486031215611fd557600080fd5b8335611fe081611f7f565b92506020840135611ff081611f7f565b929592945050506040919091013590565b6000806040838503121561201457600080fd5b82359150602083013561202681611f7f565b809150509250929050565b60006020828403121561204357600080fd5b8135611d7581611f7f565b8015158114610ed557600080fd5b6000806040838503121561206f57600080fd5b823561207a81611f7f565b915060208301356120268161204e565b634e487b7160e01b600052604160045260246000fd5b6040516101a0810167ffffffffffffffff811182821017156120c4576120c461208a565b60405290565b6040516101c0810167ffffffffffffffff811182821017156120c4576120c461208a565b604051601f8201601f1916810167ffffffffffffffff811182821017156121175761211761208a565b604052919050565b600067ffffffffffffffff8211156121395761213961208a565b50601f01601f191660200190565b6000806000806080858703121561215d57600080fd5b843561216881611f7f565b9350602085013561217881611f7f565b925060408501359150606085013567ffffffffffffffff81111561219b57600080fd5b8501601f810187136121ac57600080fd5b80356121bf6121ba8261211f565b6120ee565b8181528860208385010111156121d457600080fd5b8160208401602083013760006020838301015280935050505092959194509250565b60006101a0825181855261220c82860182611f27565b915050602083015184820360208601526122268282611f27565b915050604083015184820360408601526122408282611f27565b9150506060830151848203606086015261225a8282611f27565b915050608083015184820360808601526122748282611f27565b91505060a083015184820360a086015261228e8282611f27565b91505060c083015184820360c08601526122a88282611f27565b91505060e083015184820360e08601526122c28282611f27565b91505061010080840151858303828701526122dd8382611f27565b9250505061012080840151858303828701526122f98382611f27565b9250505061014080840151858303828701526123158382611f27565b9250505061016080840151858303828701526123318382611f27565b92505050610180808401518583038287015261234d8382611f27565b9695505050505050565b60006101c0825181855261236d82860182611f27565b915050602083015184820360208601526123878282611f27565b915050604083015184820360408601526123a18282611f27565b915050606083015184820360608601526123bb8282611f27565b915050608083015184820360808601526123d58282611f27565b91505060a083015184820360a08601526123ef8282611f27565b91505060c083015184820360c08601526124098282611f27565b91505060e083015184820360e08601526124238282611f27565b915050610100808401518583038287015261243e8382611f27565b92505050610120808401518583038287015261245a8382611f27565b9250505061014080840151858303828701526124768382611f27565b9250505061016080840151858303828701526124928382611f27565b9250505061018080840151858303828701526124ae8382611f27565b925050506101a0808401518583038287015261234d8382611f27565b60208152600082516101c08060208501526124e96101e0850183611f27565b915060208501516040850152604085015161250f60608601826001600160a01b03169052565b5060608501516080850152608085015160a085015260a085015160c085015260c0850151601f19808685030160e087015261254a8483611f27565b935060e0870151915061010081878603018188015261256985846121f6565b9450808801519250506101208187860301818801526125888584611f27565b9450808801519250506101408187860301818801526125a78584611f27565b9450808801519250506101608187860301818801526125c68584611f27565b9450808801519250506101806125df8188018415159052565b87015191506101a06125f48782018415159052565b87015186850390910183870152905061234d8382612357565b6000806040838503121561262057600080fd5b823561262b81611f7f565b9150602083013561202681611f7f565b600181811c9082168061264f57607f821691505b60208210810361266f57634e487b7160e01b600052602260045260246000fd5b50919050565b634e487b7160e01b600052603260045260246000fd5b600082601f83011261269c57600080fd5b81516126aa6121ba8261211f565b8181528460208386010111156126bf57600080fd5b610fca826020830160208701611f03565b80516126db81611f7f565b919050565b60006101a082840312156126f357600080fd5b6126fb6120a0565b9050815167ffffffffffffffff8082111561271557600080fd5b6127218583860161268b565b8352602084015191508082111561273757600080fd5b6127438583860161268b565b6020840152604084015191508082111561275c57600080fd5b6127688583860161268b565b6040840152606084015191508082111561278157600080fd5b61278d8583860161268b565b606084015260808401519150808211156127a657600080fd5b6127b28583860161268b565b608084015260a08401519150808211156127cb57600080fd5b6127d78583860161268b565b60a084015260c08401519150808211156127f057600080fd5b6127fc8583860161268b565b60c084015260e084015191508082111561281557600080fd5b6128218583860161268b565b60e08401526101009150818401518181111561283c57600080fd5b6128488682870161268b565b83850152506101209150818401518181111561286357600080fd5b61286f8682870161268b565b83850152506101409150818401518181111561288a57600080fd5b6128968682870161268b565b8385015250610160915081840151818111156128b157600080fd5b6128bd8682870161268b565b8385015250610180915081840151818111156128d857600080fd5b6128e48682870161268b565b8385015250505092915050565b80516126db8161204e565b60006101c0828403121561290f57600080fd5b6129176120ca565b9050815167ffffffffffffffff8082111561293157600080fd5b61293d8583860161268b565b8352602084015191508082111561295357600080fd5b61295f8583860161268b565b6020840152604084015191508082111561297857600080fd5b6129848583860161268b565b6040840152606084015191508082111561299d57600080fd5b6129a98583860161268b565b606084015260808401519150808211156129c257600080fd5b6129ce8583860161268b565b608084015260a08401519150808211156129e757600080fd5b6129f38583860161268b565b60a084015260c0840151915080821115612a0c57600080fd5b612a188583860161268b565b60c084015260e0840151915080821115612a3157600080fd5b612a3d8583860161268b565b60e084015261010091508184015181811115612a5857600080fd5b612a648682870161268b565b838501525061012091508184015181811115612a7f57600080fd5b612a8b8682870161268b565b838501525061014091508184015181811115612aa657600080fd5b612ab28682870161268b565b838501525061016091508184015181811115612acd57600080fd5b612ad98682870161268b565b838501525061018091508184015181811115612af457600080fd5b612b008682870161268b565b83850152506101a0915081840151818111156128d857600080fd5b600060208284031215612b2d57600080fd5b815167ffffffffffffffff80821115612b4557600080fd5b908301906101c08286031215612b5a57600080fd5b612b626120ca565b825182811115612b7157600080fd5b612b7d8782860161268b565b82525060208301516020820152612b96604084016126d0565b6040820152606083015160608201526080830151608082015260a083015160a082015260c083015182811115612bcb57600080fd5b612bd78782860161268b565b60c08301525060e083015182811115612bef57600080fd5b612bfb878286016126e0565b60e0830152506101008084015183811115612c1557600080fd5b612c218882870161268b565b8284015250506101208084015183811115612c3b57600080fd5b612c478882870161268b565b8284015250506101408084015183811115612c6157600080fd5b612c6d8882870161268b565b828401525050610160612c818185016128f1565b90820152610180612c938482016128f1565b908201526101a08381015183811115612cab57600080fd5b612cb7888287016128fc565b918301919091525095945050505050565b634e487b7160e01b600052601160045260246000fd5b8082018082111561049c5761049c612cc8565b600060208284031215612d0357600080fd5b815167ffffffffffffffff811115612d1a57600080fd5b610fca8482850161268b565b7f416363657373436f6e74726f6c3a206163636f756e7420000000000000000000815260008351612d5e816017850160208801611f03565b7f206973206d697373696e6720726f6c65200000000000000000000000000000006017918401918201528351612d9b816028840160208801611f03565b01602801949350505050565b60006001600160a01b0380871683528086166020840152508360408301526080606083015261234d6080830184611f27565b600060208284031215612deb57600080fd5b8151611d7581611ed0565b8181038181111561049c5761049c612cc8565b634e487b7160e01b600052603160045260246000fd5b808202811582820484141761049c5761049c612cc8565b600081612e4557612e45612cc8565b50600019019056fea26469706673582212201b93d988c86bd3ca627c6fe1d283c479de0957b15a2d2a5f57449348bd6b492864736f6c63430008110033",
  "devdoc": {
    "details": "A ERC721 dNFT token contract for Pocky Ticket, powered by Chainlink. The NFT changes its metadata (i.e. SVG image) according to the event result.",
    "kind": "dev",
    "methods": {
      "approve(address,uint256)": {
        "details": "See {IERC721-approve}."
      },
      "balanceOf(address)": {
        "details": "See {IERC721-balanceOf}."
      },
      "collectionOf(uint256)": {
        "details": "returns the collection data of given token. "
      },
      "getApproved(uint256)": {
        "details": "See {IERC721-getApproved}."
      },
      "getRoleAdmin(bytes32)": {
        "details": "Returns the admin role that controls `role`. See {grantRole} and {revokeRole}. To change a role's admin, use {_setRoleAdmin}."
      },
      "grantRole(bytes32,address)": {
        "details": "Grants `role` to `account`. If `account` had not been already granted `role`, emits a {RoleGranted} event. Requirements: - the caller must have ``role``'s admin role. May emit a {RoleGranted} event."
      },
      "hasRole(bytes32,address)": {
        "details": "Returns `true` if `account` has been granted `role`."
      },
      "isApprovedForAll(address,address)": {
        "details": "See {IERC721-isApprovedForAll}."
      },
      "mint(uint256,address)": {
        "details": "Mints a new token.",
        "params": {
          "collectionId": "The collection ID of the token.",
          "to": "The beneficiary address to receive the minted token."
        }
      },
      "name()": {
        "details": "See {IERC721Metadata-name}."
      },
      "ownerOf(uint256)": {
        "details": "See {IERC721-ownerOf}."
      },
      "renounceRole(bytes32,address)": {
        "details": "Revokes `role` from the calling account. Roles are often managed via {grantRole} and {revokeRole}: this function's purpose is to provide a mechanism for accounts to lose their privileges if they are compromised (such as when a trusted device is misplaced). If the calling account had been revoked `role`, emits a {RoleRevoked} event. Requirements: - the caller must be `account`. May emit a {RoleRevoked} event."
      },
      "revokeRole(bytes32,address)": {
        "details": "Revokes `role` from `account`. If `account` had been granted `role`, emits a {RoleRevoked} event. Requirements: - the caller must have ``role``'s admin role. May emit a {RoleRevoked} event."
      },
      "safeTransferFrom(address,address,uint256)": {
        "details": "See {IERC721-safeTransferFrom}."
      },
      "safeTransferFrom(address,address,uint256,bytes)": {
        "details": "See {IERC721-safeTransferFrom}."
      },
      "setApprovalForAll(address,bool)": {
        "details": "See {IERC721-setApprovalForAll}."
      },
      "supportsInterface(bytes4)": {
        "details": "See {IERC165-supportsInterface}. "
      },
      "symbol()": {
        "details": "See {IERC721Metadata-symbol}."
      },
      "tokenByIndex(uint256)": {
        "details": "See {IERC721Enumerable-tokenByIndex}."
      },
      "tokenOfOwnerByIndex(address,uint256)": {
        "details": "See {IERC721Enumerable-tokenOfOwnerByIndex}."
      },
      "tokenURI(uint256)": {
        "details": "returns a dynamic NFT metadata of given token. The returned URI is an base64-encoded URI self-containing the metadata by itself, not pointing any external URIs like IPFS."
      },
      "totalSupply()": {
        "details": "See {IERC721Enumerable-totalSupply}."
      },
      "totalSupplyOfCollection(uint256)": {
        "details": "returns the total supply of the collection "
      },
      "transferFrom(address,address,uint256)": {
        "details": "See {IERC721-transferFrom}."
      }
    },
    "stateVariables": {
      "collections": {
        "details": "PockeyCollections contract, which is a module responsible for managing the dNFT metadata "
      }
    },
    "version": 1
  },
  "userdoc": {
    "kind": "user",
    "methods": {
      "mint(uint256,address)": {
        "notice": "Should have called by an admin user having {@link MINTER_ROLE}."
      }
    },
    "version": 1
  },
  "storageLayout": {
    "storage": [
      {
        "astId": 2788,
        "contract": "contracts/PockyTicket.sol:Ticket",
        "label": "_name",
        "offset": 0,
        "slot": "0",
        "type": "t_string_storage"
      },
      {
        "astId": 2790,
        "contract": "contracts/PockyTicket.sol:Ticket",
        "label": "_symbol",
        "offset": 0,
        "slot": "1",
        "type": "t_string_storage"
      },
      {
        "astId": 2794,
        "contract": "contracts/PockyTicket.sol:Ticket",
        "label": "_owners",
        "offset": 0,
        "slot": "2",
        "type": "t_mapping(t_uint256,t_address)"
      },
      {
        "astId": 2798,
        "contract": "contracts/PockyTicket.sol:Ticket",
        "label": "_balances",
        "offset": 0,
        "slot": "3",
        "type": "t_mapping(t_address,t_uint256)"
      },
      {
        "astId": 2802,
        "contract": "contracts/PockyTicket.sol:Ticket",
        "label": "_tokenApprovals",
        "offset": 0,
        "slot": "4",
        "type": "t_mapping(t_uint256,t_address)"
      },
      {
        "astId": 2808,
        "contract": "contracts/PockyTicket.sol:Ticket",
        "label": "_operatorApprovals",
        "offset": 0,
        "slot": "5",
        "type": "t_mapping(t_address,t_mapping(t_address,t_bool))"
      },
      {
        "astId": 3838,
        "contract": "contracts/PockyTicket.sol:Ticket",
        "label": "_ownedTokens",
        "offset": 0,
        "slot": "6",
        "type": "t_mapping(t_address,t_mapping(t_uint256,t_uint256))"
      },
      {
        "astId": 3842,
        "contract": "contracts/PockyTicket.sol:Ticket",
        "label": "_ownedTokensIndex",
        "offset": 0,
        "slot": "7",
        "type": "t_mapping(t_uint256,t_uint256)"
      },
      {
        "astId": 3845,
        "contract": "contracts/PockyTicket.sol:Ticket",
        "label": "_allTokens",
        "offset": 0,
        "slot": "8",
        "type": "t_array(t_uint256)dyn_storage"
      },
      {
        "astId": 3849,
        "contract": "contracts/PockyTicket.sol:Ticket",
        "label": "_allTokensIndex",
        "offset": 0,
        "slot": "9",
        "type": "t_mapping(t_uint256,t_uint256)"
      },
      {
        "astId": 2398,
        "contract": "contracts/PockyTicket.sol:Ticket",
        "label": "_roles",
        "offset": 0,
        "slot": "10",
        "type": "t_mapping(t_bytes32,t_struct(RoleData)2393_storage)"
      },
      {
        "astId": 6359,
        "contract": "contracts/PockyTicket.sol:Ticket",
        "label": "collections",
        "offset": 0,
        "slot": "11",
        "type": "t_contract(PockyCollections)6329"
      },
      {
        "astId": 6363,
        "contract": "contracts/PockyTicket.sol:Ticket",
        "label": "tokenIdToCollectionId",
        "offset": 0,
        "slot": "12",
        "type": "t_mapping(t_uint256,t_uint256)"
      },
      {
        "astId": 6367,
        "contract": "contracts/PockyTicket.sol:Ticket",
        "label": "_totalSupplyPerCollectionId",
        "offset": 0,
        "slot": "13",
        "type": "t_mapping(t_uint256,t_uint256)"
      }
    ],
    "types": {
      "t_address": {
        "encoding": "inplace",
        "label": "address",
        "numberOfBytes": "20"
      },
      "t_array(t_uint256)dyn_storage": {
        "base": "t_uint256",
        "encoding": "dynamic_array",
        "label": "uint256[]",
        "numberOfBytes": "32"
      },
      "t_bool": {
        "encoding": "inplace",
        "label": "bool",
        "numberOfBytes": "1"
      },
      "t_bytes32": {
        "encoding": "inplace",
        "label": "bytes32",
        "numberOfBytes": "32"
      },
      "t_contract(PockyCollections)6329": {
        "encoding": "inplace",
        "label": "contract PockyCollections",
        "numberOfBytes": "20"
      },
      "t_mapping(t_address,t_bool)": {
        "encoding": "mapping",
        "key": "t_address",
        "label": "mapping(address => bool)",
        "numberOfBytes": "32",
        "value": "t_bool"
      },
      "t_mapping(t_address,t_mapping(t_address,t_bool))": {
        "encoding": "mapping",
        "key": "t_address",
        "label": "mapping(address => mapping(address => bool))",
        "numberOfBytes": "32",
        "value": "t_mapping(t_address,t_bool)"
      },
      "t_mapping(t_address,t_mapping(t_uint256,t_uint256))": {
        "encoding": "mapping",
        "key": "t_address",
        "label": "mapping(address => mapping(uint256 => uint256))",
        "numberOfBytes": "32",
        "value": "t_mapping(t_uint256,t_uint256)"
      },
      "t_mapping(t_address,t_uint256)": {
        "encoding": "mapping",
        "key": "t_address",
        "label": "mapping(address => uint256)",
        "numberOfBytes": "32",
        "value": "t_uint256"
      },
      "t_mapping(t_bytes32,t_struct(RoleData)2393_storage)": {
        "encoding": "mapping",
        "key": "t_bytes32",
        "label": "mapping(bytes32 => struct AccessControl.RoleData)",
        "numberOfBytes": "32",
        "value": "t_struct(RoleData)2393_storage"
      },
      "t_mapping(t_uint256,t_address)": {
        "encoding": "mapping",
        "key": "t_uint256",
        "label": "mapping(uint256 => address)",
        "numberOfBytes": "32",
        "value": "t_address"
      },
      "t_mapping(t_uint256,t_uint256)": {
        "encoding": "mapping",
        "key": "t_uint256",
        "label": "mapping(uint256 => uint256)",
        "numberOfBytes": "32",
        "value": "t_uint256"
      },
      "t_string_storage": {
        "encoding": "bytes",
        "label": "string",
        "numberOfBytes": "32"
      },
      "t_struct(RoleData)2393_storage": {
        "encoding": "inplace",
        "label": "struct AccessControl.RoleData",
        "members": [
          {
            "astId": 2390,
            "contract": "contracts/PockyTicket.sol:Ticket",
            "label": "members",
            "offset": 0,
            "slot": "0",
            "type": "t_mapping(t_address,t_bool)"
          },
          {
            "astId": 2392,
            "contract": "contracts/PockyTicket.sol:Ticket",
            "label": "adminRole",
            "offset": 0,
            "slot": "1",
            "type": "t_bytes32"
          }
        ],
        "numberOfBytes": "64"
      },
      "t_uint256": {
        "encoding": "inplace",
        "label": "uint256",
        "numberOfBytes": "32"
      }
    }
  }
}